:100000000C945E000C947D000C947D000C947D009B
:100010000C947D000C947D000C947D000C947D006C
:100020000C947D000C947D000C947D000C947D005C
:100030000C947D000C9497070C947D000C947D002B
:100040000C947D000C947D000C947D000C947D003C
:100050000C947D000C947D000C947D000C947D002C
:100060000C947D000C947D000C947D000C947D001C
:100070000C947D000C947D000C947D000C947D000C
:100080000C947D000C947D000C947D00420247028C
:100090004C02510256025B0260026502A30BAA0BDE
:1000A000FC0B030C0A0C110C180C1F0C6D0D6D0DC4
:1000B0005D0C890CB50C120D6D0D6D0D11241FBE5C
:1000C000CFEFD0E4DEBFCDBF11E0A0E0B1E0E4EAC5
:1000D000FCE100E00BBF02C007900D92A43DB10708
:1000E000D9F722E0A4EDB1E001C01D92A637B20716
:1000F000E1F70E947A0D0C94500E0C940000CF93FF
:10010000DF9300D01F92CDB7DEB78B83198288E0D2
:10011000898348C08B81282F30E08981882F90E027
:10012000AC014150510981E090E002C0880F991F55
:100130004A95E2F7822393232981222F30E0215030
:10014000310902C0959587952A95E2F78A8385E261
:1001500090E025E230E0F90120812D7FFC01208331
:100160008A81882351F085E290E025E230E0F901B0
:1001700020812160FC01208309C085E290E025E216
:1001800030E0F90120812E7FFC01208385E290E0A0
:1001900025E230E0F90120812260FC012083898181
:1001A000815089838981882309F0B4CF00000F90A2
:1001B0000F900F90DF91CF910895CF93DF9300D0F0
:1001C00000D0CDB7DEB78A836B834C8319828A81D6
:1001D0008230B0F585E290E025E230E0F90120813F
:1001E0002B7FFC0120838A81898309C080E00E94E3
:1001F0007F0080E00E947F0089818F5F89838981F1
:100200008823A1F38B810E947F008C810E947F0054
:10021000198209C080E00E947F0080E00E947F0078
:1002200089818F5F898399818A81981798F385E204
:1002300090E025E230E0F90120812460FC01208378
:1002400000000F900F900F900F90DF91CF910895C5
:10025000CF93DF9300D0CDB7DEB789836A838A81DD
:10026000882319F08A81813029F44A816CE08981E0
:100270000E94DD0000000F900F90DF91CF91089554
:10028000CF93DF9300D0CDB7DEB789836A838A81AD
:10029000803128F44A816AE089810E94DD000000F3
:1002A0000F900F90DF91CF910895CF93DF9300D0FF
:1002B000CDB7DEB789836A838A81882319F08A8162
:1002C000813029F44A816FE089810E94DD000000BD
:1002D0000F900F90DF91CF910895CF93DF9300D0CF
:1002E000CDB7DEB789836A838A81883028F44A8152
:1002F0006BE089810E94DD0000000F900F90DF917C
:10030000CF910895CF93DF9300D0CDB7DEB7898327
:100310006A834A8169E089810E94DD0000000F90B4
:100320000F90DF91CF910895CF93DF9300D0CDB799
:10033000DEB789836A834A8161E089810E94DD009A
:1003400000000F900F90DF91CF910895CF93DF932E
:1003500000D0CDB7DEB789836A834A8162E08981A4
:100360000E94DD0000000F900F90DF91CF91089563
:10037000CF93DF9300D0CDB7DEB789836A834A81FC
:1003800063E089810E94DD0000000F900F90DF91F3
:10039000CF910895CF93DF9300D0CDB7DEB7898397
:1003A0006A834A8164E089810E94DD0000000F9029
:1003B0000F90DF91CF910895CF93DF9300D0CDB709
:1003C000DEB789836A834A8165E089810E94DD0006
:1003D00000000F900F90DF91CF910895CF93DF939E
:1003E00000D0CDB7DEB789836A834A8166E0898110
:1003F0000E94DD0000000F900F90DF91CF910895D3
:10040000CF93DF9300D0CDB7DEB789836A834A816B
:1004100067E089810E94DD0000000F900F90DF915E
:10042000CF910895CF93DF9300D0CDB7DEB7898306
:100430006A834A8168E089810E94DD0000000F9094
:100440000F90DF91CF910895CF93DF9300D01F924B
:10045000CDB7DEB789836A834B838A81882F90E08A
:10046000092E000CAA0BBB0B40E050E027E030E067
:10047000841B950B2817390768F18A5B9F4FFC0195
:100480000C94470E6B8189810E94940123C06B817B
:1004900089810E94A6011EC06B8189810E94B801DA
:1004A00019C06B8189810E94CA0114C06B81898146
:1004B0000E94DC010FC06B8189810E94EE010AC09D
:1004C0006B8189810E94000205C06B8189810E9435
:1004D0001202000000000F900F900F90DF91CF915B
:1004E0000895CF93DF93CDB7DEB784E290E024E2A6
:1004F00030E0F90120812160FC01208384E290E05A
:1005000024E230E0F90120812260FC01208384E2B2
:1005100090E024E230E0F90120812460FC01208396
:1005200085E290E025E230E0F90120812E7FFC0198
:10053000208385E290E025E230E0F90120812D7FE3
:10054000FC01208385E290E025E230E0F901208182
:100550002B7FFC0120830000DF91CF910895CF9382
:10056000DF9300D0CDB7DEB79A83898389819A81E2
:10057000892B11F400C006C089819A810197F1F797
:100580009A83898300000F900F90DF91CF91089597
:10059000CF93DF93CDB7DEB78BE290E02BE230E074
:1005A000F90120812064FC01208300C08BE290E0EF
:1005B0002BE230E0F90120812F7BFC012083000039
:1005C000DF91CF910895CF93DF9300D01F92CDB7E5
:1005D000DEB78A836B838B81882351F08BE290E0B6
:1005E0002BE230E0F90120812061FC01208309C069
:1005F0008BE290E02BE230E0F90120812F7EFC01BC
:1006000020838BE290E02BE230E0F90120812F7D06
:10061000FC0120838AE290E02AE230E0F9012081A7
:100620002F60FC0120838BE290E0FC018081807FC1
:1006300089838BE290E02A8122952F70322F2981C5
:10064000232BFC0120830E94C8028BE290E02A81C8
:10065000322F3F702981232BFC0120830E94C80286
:100660008BE290E029812F60FC01208300000F9035
:100670000F900F90DF91CF910895CF93DF9300D02B
:10068000CDB7DEB78A838A81882351F08BE290E070
:100690002BE230E0F90120812061FC01208309C0B8
:1006A0008BE290E02BE230E0F90120812F7EFC010B
:1006B00020838BE290E02BE230E0F9012081206280
:1006C000FC0120838AE290E02AE230E0F9012081F7
:1006D000207FFC0120838BE290E02BE230E0F901E7
:1006E00020812064FC01208300C089E290E0FC01AD
:1006F00080818295807F89838BE290E02BE230E0DD
:10070000F90120812F7BFC01208300C08BE290E067
:100710002BE230E0F90120812064FC01208300C03D
:1007200089E290E0FC018081882F90E08F7099270A
:10073000982F8981892B89838BE290E02BE230E02E
:10074000F90120812F7BFC01208389810F900F907C
:10075000DF91CF9108951F93CF93DF93CDB7DEB78D
:1007600080E00E943D03182F812F8823CCF388E07E
:1007700090E00E94AF0280E00E943D03DF91CF91A4
:100780001F9108951F93CF93DF931F92CDB7DEB7CC
:1007900089838981803410F410E401C010E080E87E
:1007A000810F0E94D90300000F90DF91CF911F911C
:1007B0000895CF93DF931F92CDB7DEB789830E9450
:1007C000AB0360E089810E94E30200000F90DF919B
:1007D000CF910895CF93DF931F92CDB7DEB7898372
:1007E0000E94AB0361E089810E94E30200000F9048
:1007F000DF91CF910895CF93DF9300D0CDB7DEB7CF
:1008000089836A838A81882329F4898180580E9498
:10081000D90304C0898180540E94D90300000F903D
:100820000F90DF91CF910895CF93DF93CDB7DEB7CF
:100830000E94AB03882F90E0DF91CF910895CF9372
:10084000DF93CDB7DEB781E00E94D9030000DF91CE
:10085000CF910895CF93DF93CDB7DEB782E00E94AA
:10086000D9030000DF91CF910895CF93DF9300D09B
:10087000CDB7DEB78A830E94AB0389838A818A3031
:1008800021F489810E94C20304C08A8161E00E9430
:10089000E30200000F900F90DF91CF9108951F9316
:1008A000CF93DF9300D0CDB7DEB79A83898303C09F
:1008B000812F0E94350489819A819C012F5F3F4FCF
:1008C0003A832983FC011081112391F700000F90D6
:1008D0000F90DF91CF911F9108951F93CF93DF93D6
:1008E00000D000D01F92CDB7DEB79D838C8303C0AC
:1008F000812F0E9435048C819D819C012F5F3F4F89
:100900003D832C839A83898389819A81FC01849118
:100910008B838B81182F112359F700000F900F90B4
:100920000F900F900F90DF91CF911F910895CF936B
:10093000DF931F92CDB7DEB789838AE290E02AE287
:1009400030E0F90120812F67FC01208380E09AEFDD
:100950000E94AF028BE290E02BE230E0F9012081AF
:100960002260FC0120838BE290E02BE230E0F90171
:1009700020812160FC0120830E94C80280E09EE467
:100980000E94AF020E94C80280E091E00E94AF0284
:100990000E94C80280E091E00E94AF028BE290E0EA
:1009A0002BE230E0F90120812E7FFC0120830E94A0
:1009B000C80280E091E00E94AF0288E20E94D90361
:1009C00088E00E94D9030E941F0486E00E94D90398
:1009D00089810E94D90300000F90DF91CF91089583
:1009E000CF93DF9300D0CDB7DEB78A831982198207
:1009F0001AC08A81282F30E08981882F90E0220F49
:100A0000331F220F331F220F331F820F931F885A69
:100A10009D4FFC01108240E069818A810E9424027E
:100A200089818F5F89838981883018F300000F9056
:100A30000F90DF91CF910895CF93DF9300D000D036
:100A4000CDB7DEB78A837C836B8319828A8182303B
:100A500088F519822CC08A81282F30E08981882F5F
:100A600090E04981442F50E06B817C81460F571FF5
:100A7000FA014081220F331F220F331F220F331F31
:100A8000820F931F885A9D4FFC0140838981882FD4
:100A900090E02B813C81820F931FFC018081482FC5
:100AA00069818A810E94240289818F5F898389817B
:100AB000883088F200000F900F900F900F90DF9118
:100AC000CF910895CF93DF9300D01F92CDB7DEB7BB
:100AD00089836A834B8389818230D8F48A81883004
:100AE000C0F48981282F30E08A81882F90E0220F7E
:100AF000331F220F331F220F331F820F931F885A79
:100B00009D4F2B81FC0120834B816A8189810E944A
:100B1000240200000F900F900F90DF91CF91089565
:100B2000CF93DF9300D000D01F92CDB7DEB78B8379
:100B30006C834D838C81803408F042C08C81877037
:100B40008A838B81282F30E08A81882F90E0220FC2
:100B5000331F220F331F220F331F820F931F885A18
:100B60009D4FFC01808189838D81882391F08C8148
:100B7000869586958695282F30E081E090E002C02A
:100B8000880F991F2A95E2F7982F8981892B8983ED
:100B900012C08C81869586958695282F30E081E05D
:100BA00090E002C0880F991F2A95E2F7982F909540
:100BB00089818923898349816A818B810E946205A9
:100BC00000000F900F900F900F900F90DF91CF913A
:100BD0000895CF93DF9300D0CDB7DEB789836A83C2
:100BE00041E06A8189810E94900500000F900F907A
:100BF000DF91CF910895CF93DF9300D0CDB7DEB7CB
:100C000089836A8340E06A8189810E94900500009F
:100C10000F900F90DF91CF910895CF93DF9300D085
:100C2000CDB7DEB789836A836A8189810E944001DA
:100C300000000F900F90DF91CF910895CF93DF9335
:100C400000D0CDB7DEB70E947102198219821DC093
:100C50001A821A82000061E089810E94280160E006
:100C600089810E94550160E089810E9482016FE0C4
:100C700089810E94400167E089810E946D0189811C
:100C80000E94F00489818F5F89838981823000F31B
:100C900000000F900F90DF91CF910895CF93DF93D5
:100CA000CDB7DEB781E00E9475060000DF91CF91DD
:100CB0000895CF93DF93CDB7DEB784E690E00E942E
:100CC000190788E30E94750686E00E9475068FE08A
:100CD0000E94750681E00E9475068AE090E00E94FD
:100CE00019070000DF91CF910895CF93DF931F92F2
:100CF000CDB7DEB789838BE290E02BE230E0F901DB
:100D000020812F7BFC01208388E290E02981FC0177
:100D100020838BE290E02BE230E0F9012081206813
:100D2000FC01208300008BE290E02BE230E0F9012F
:100D300020812F77FC01208382E090E00E94190738
:100D400000000F90DF91CF910895CF93DF931F9212
:100D5000CDB7DEB789838BE290E02BE230E0F9017A
:100D600020812064FC01208388E290E02981FC013D
:100D700020838BE290E02BE230E0F90120812068B3
:100D8000FC01208300008BE290E02BE230E0F901CF
:100D900020812F77FC01208381E090E00E941907D9
:100DA00000000F90DF91CF910895CF93DF9300D093
:100DB00000D0CDB7DEB78A837C836B830E944E065A
:100DC0008A81898311C0898191E0980F99830E945B
:100DD00002078B819C819C012F5F3F4F3C832B83BB
:100DE000FC0180810E94A5068B819C81FC01808191
:100DF000882349F700000F900F900F900F90DF911C
:100E0000CF910895CF93DF931F92CDB7DEB789833B
:100E10008981813128F4898181580E94750604C036
:100E2000898181550E94750600000F90DF91CF9156
:100E30000895CF93DF9300D000D000D0CDB7DEB7B8
:100E40009E838D831A82198213C01C821B8206C066
:100E500000008B819C8101969C838B838B819C817C
:100E600087309340ACF389819A8101969A83898374
:100E700029813A818D819E812817390734F300003A
:100E800026960FB6F894DEBF0FBECDBFDF91CF918F
:100E90000895CF93DF93CDB7DEB781E890E02BE0E4
:100EA000FC01208388E890E02DE730E0FC013183ED
:100EB00020838FE690E022E0FC01208384E890E02C
:100EC000FC01118210828091000190910101A0919A
:100ED0000201B09103018093D5019093D601A093B4
:100EE000D701B093D8018FE590E02FE530E0F9010C
:100EF00020812068FC0120830000DF91CF910895BC
:100F0000CF93DF93CDB7DEB781E890E0FC0110828C
:100F10000000DF91CF910895CF93DF93CDB7DEB777
:100F200081E08093D4010000DF91CF9108951F925A
:100F30000F9200905F000F92112400905B000F92BF
:100F40002F933F934F935F936F937F938F939F93D1
:100F5000AF93BF93EF93FF93CF93DF93CDB7DEB7FC
:100F60008091D5019091D601A091D701B091D8017F
:100F70000197A109B1098093D5019093D601A0935F
:100F8000D701B093D8018091D5019091D601A0915D
:100F9000D701B091D801892B8A2B8B2B91F40E9419
:100FA0008C078091000190910101A0910201B09104
:100FB00003018093D5019093D601A093D701B093FC
:100FC000D8010000DF91CF91FF91EF91BF91AF91D8
:100FD0009F918F917F916F915F914F913F912F9151
:100FE0000F9000925B000F9000925F000F901F9097
:100FF0001895CF93DF9300D000D0CDB7DEB76983CB
:101000007A838B839C8389819A81AB81BC81809315
:10101000000190930101A0930201B093030180911C
:10102000000190910101A0910201B0910301809310
:10103000D5019093D601A093D701B093D8010000B9
:101040000F900F900F900F90DF91CF910895CF9355
:10105000DF9300D01F92CDB7DEB789837B836A838D
:1010600089818A3031F48A819B81BC018DE00E94A4
:10107000270880EC90E0FC018081882F90E080724E
:101080009927892BB1F386EC90E02981FC0120831C
:1010900080E090E00F900F900F90DF91CF91089536
:1010A000CF93DF9300D000D000D0CDB7DEB71A8247
:1010B00019821C821B8246C01E821D823AC08B810F
:1010C0009C819C01220F331F220F331F220F331FDD
:1010D0008D819E81820F931F8C569E4FFC018081D3
:1010E000833211F58B819C819C01220F331F220FCB
:1010F000331F220F331F8D819E81820F931F880F14
:10110000991F8C5E9E4FFC012081318189819A81DB
:10111000880F991F86529E4FFC013183208389815D
:101120009A8101969A8389838D819E8101969E83FF
:101130008D838D819E81089714F28B819C8101960D
:101140009C838B838B819C8108970CF4B5CF8AEDAF
:1011500091E026960FB6F894DEBF0FBECDBFDF91AB
:10116000CF910895CF93DF9300D000D000D0CDB7BA
:10117000DEB79C838B837E836D831A82198217C0AE
:1011800089819A81880F991F2B813C81820F931F3F
:10119000FC01208131818D819E812817390711F44E
:1011A00081E00AC089819A8101969A838983898125
:1011B0009A81CF972CF380E026960FB6F894DEBF85
:1011C0000FBECDBFDF91CF910895CF93DF9300D0B5
:1011D00000D0CDB7DEB71A821982F5C01C821B82FF
:1011E000E8C089819A819C01220F331F220F331F8F
:1011F000220F331F8B819C81820F931F8C569E4F31
:10120000FC0180818332D1F489819A819C01220F73
:10121000331F220F331F220F331F8B819C81820FBC
:10122000931F880F991F8C5E9E4FFC0180819181D6
:1012300041E0682F80E00E949005B6C089819A81C4
:101240009C01220F331F220F331F220F331F8B816C
:101250009C81820F931F8C569E4FFC0180818A32A5
:1012600091F589819A819C01220F331F220F331F30
:10127000220F331F8B819C81820F931F880F991F30
:101280008C5E9E4FFC0180819181909373028093CC
:10129000720289819A819C01220F331F220F331F12
:1012A000220F331F8B819C81820F931F880F991F00
:1012B0008C5E9E4FFC018081918141E0682F80E02F
:1012C0000E94900571C089819A819C01220F331F71
:1012D000220F331F220F331F8B819C81820F931F9C
:1012E0008C569E4FFC0180818034D1F489819A8193
:1012F0009C01220F331F220F331F220F331F8B81BC
:101300009C81820F931F880F991F8C5E9E4FFC015A
:101310008081918140E0682F80E00E94900544C068
:1013200089819A819C01220F331F220F331F220FC4
:10133000331F8B819C81820F931F8C569E4FFC0123
:101340008081813289F589819A819C01220F331F26
:10135000220F331F220F331F8B819C81820F931F1B
:10136000880F991F8C5E9E4FFC018081918141E026
:10137000682F80E00E94900589819A819C01220F4C
:10138000331F220F331F220F331F8B819C81820F4B
:10139000931F880F991F8C5E9E4FFC018081918165
:1013A00090936902809368028B819C8101969C8353
:1013B0008B838B819C8108970CF413CF89819A8150
:1013C00001969A83898389819A8108970CF406CFC4
:1013D00000000F900F900F900F90DF91CF91089524
:1013E000CF93DF9300D000D0CDB7DEB71A82198239
:1013F0003DC01C821B8231C089819A819C01220FD1
:10140000331F220F331F220F331F8B819C81820FCA
:10141000931F8C569E4FFC0180818332C9F48981D1
:101420009A819C01220F331F220F331F220F331F7B
:101430008B819C81820F931F880F991F8C5E9E4F1A
:10144000FC018081918140E0682F80E00E9490053E
:101450008B819C8101969C838B838B819C810897D7
:101460005CF289819A8101969A83898389819A8124
:1014700008970CF4BECF00000F900F900F900F90C4
:10148000DF91CF910895CF93DF9300D000D0CDB7F7
:10149000DEB781E00E94F00480E00E94F0041A822E
:1014A00019822AC01C821B821EC089819A819C01DC
:1014B000220F331F220F331F220F331F8B819C817A
:1014C000820F931F880F991F8C5E9E4FFC018081B5
:1014D000918141E0682F80E00E9490058B819C8182
:1014E00001969C838B838B819C810897F4F2898180
:1014F0009A8101969A83898389819A81089794F2C7
:1015000000000F900F900F900F90DF91CF910895F2
:10151000CF93DF93CDB7DEB78091680290916902D7
:1015200040E0682F80E00E9490050000DF91CF919D
:101530000895CF93DF93CDB7DEB780916802909185
:10154000690241E0682F80E00E9490050000DF9171
:10155000CF910895CF93DF93CDB7DEB78CE790E0BE
:101560002CE730E0F90120812064FC0120838AE728
:1015700090E02AE730E0F90120812768FC01208310
:101580000000DF91CF910895CF93DF931F92CDB7E5
:10159000DEB789838981877089838CE790E02CE7A7
:1015A00030E0F9012081322F387F2981232BFC0183
:1015B00020838AE790E02AE730E0F9012081206467
:1015C000FC01208300008AE790E0FC018081882FE5
:1015D00090E080749927892BB1F788E790E0FC01AF
:1015E000808191810F90DF91CF910895CF93DF9308
:1015F00000D0CDB7DEB71A82198280916E02909129
:101600006F028130910581F08130910530F0823098
:10161000910519F1039741F12EC081E090E090937C
:101620006F0280936E0227C0209172023091730284
:1016300080916802909169022817390739F483E094
:1016400090E090936F0280936E0215C082E090E06C
:1016500090936F0280936E020EC081E090E09093B1
:101660006F0280936E0207C083E090E090936F0258
:1016700080936E02000080916E0290916F02813023
:10168000910549F08130910548F18230910569F06A
:101690000397F1F024C0809172029091730240E0B0
:1016A000682F80E00E9490051AC0809112019091ED
:1016B000130140E0682F80E00E9490058091720243
:1016C0009091730241E0682F80E00E94900507C06E
:1016D00081E08093D9010E94430A01C0000000000C
:1016E0000F900F90DF91CF910895CF93DF93CDB7F7
:1016F000DEB780E00E94C40A90936B0280936A0276
:1017000081E00E94C40A90937102809370020E944B
:101710005008909375028093740280916C029091AE
:101720006D02CC01A0E0B0E040E050E027E030E006
:10173000841B950B2817390708F4A8C0825B9F4FBC
:10174000FC010C94470E81E090E090936D02809331
:101750006C029DC08091700290917102893E93400D
:1017600038F082E090E090936D0280936C028FC01D
:101770008091700290917102449738F483E090E078
:1017800090936D0280936C0282C080916A02909166
:101790006B02893E934038F084E090E090936D02B4
:1017A00080936C0274C080916A0290916B0244979E
:1017B00038F485E090E090936D0280936C0267C0EE
:1017C00080916A0290916B028E31924071F4809107
:1017D0007002909171028B39910539F486E090E0A6
:1017E00090936D0280936C0252C081E090E09093E0
:1017F0006D0280936C024BC087E090E090936D0285
:1018000080936C0244C087E090E090936D028093D7
:101810006C023DC087E090E090936D0280936C0273
:1018200036C087E090E090936D0280936C022FC0E9
:1018300081E090E090936D0280936C0228C08091CB
:10184000700290917102893E934098F480917002E9
:1018500090917102449768F080916A0290916B02B6
:10186000893E934030F480916A0290916B024497D4
:1018700038F487E090E090936D0280936C0206C08C
:1018800081E090E090936D0280936C020000809163
:101890006C0290916D02CC01A0E0B0E040E050E01D
:1018A00027E030E0841B950B2817390708F413C193
:1018B0008A5A9F4FFC010C94470E809172029091BE
:1018C0007302089708F40BC1809172029091730221
:1018D00008979C018091740290917502B9010E9451
:1018E000B208982F81E08927882309F4F8C08091F5
:1018F0007202909173029093130180931201809170
:10190000720290917302089790937302809372020F
:10191000E6C08091720290917302C89708F0E1C00E
:10192000809172029091730208969C0180917402DA
:1019300090917502B9010E94B208982F81E0892721
:10194000882309F4CEC08091720290917302909323
:101950001301809312018091720290917302089694
:101960009093730280937202BCC080917202909136
:101970007302892B09F4B7C08091720290917302AF
:10198000089709F4B0C08091720290917302409759
:1019900009F4A9C08091720290917302489709F4EA
:1019A000A2C08091720290917302809709F49BC04B
:1019B0008091720290917302889709F494C080918B
:1019C000720290917302C09709F48DC080917202E7
:1019D00090917302C89709F486C080917202909129
:1019E000730201979C018091740290917502B90174
:1019F0000E94B208982F81E08927882309F473C0D8
:101A0000809172029091730290931301809312015E
:101A10008091720290917302019790937302809368
:101A2000720261C08091720290917302079709F46B
:101A30005CC080917202909173020F9709F455C0B7
:101A40008091720290917302479709F44EC0809181
:101A50007202909173024F9709F447C0809172020D
:101A600090917302879709F440C08091720290911F
:101A700073028F97D1F18091720290917302C79790
:101A8000A1F18091720290917302CF9771F18091D0
:101A900072029091730201969C0180917402909160
:101AA0007502B9010E94B208982F81E08927882326
:101AB000E1F08091720290917302909313018093F0
:101AC00012018091720290917302019690937302B9
:101AD000809372020AC0000009C0000007C0000025
:101AE00005C0000003C0000001C000000000DF913D
:101AF000CF910895CF93DF93CDB7DEB7E4970FB6BC
:101B0000F894DEBF0FBECDBF81E290E0FC011082F1
:101B100082E290E02FEFFC01208384E290E0FC0160
:101B2000108285E290E02FEFFC01208387E290E0B5
:101B30002FEFFC01208388E290E0FC0110828AE212
:101B400090E02FEFFC0120838BE290E0FC011082FB
:101B500086E990E0A0E0B0E08D879E87AF87B88BE4
:101B600019821A821B821C821D821E821F82188685
:101B7000198A1A8A1B8A1C8A19861A861B861C8651
:101B80000E9459060E94AA0A0E941E0666E970E099
:101B900080E090E00E94F9070E9449070E94E50852
:101BA0000E94750B0E94F60A89819A81AB81BC81E3
:101BB00088359240A105B10560F09091D90181E08E
:101BC0008927882331F00E94880A19821A821B8291
:101BD0001C828D819E81AF81B885803B9440A10598
:101BE000B10560F09091D90181E08927882331F017
:101BF0000E94990A1D821E821F82188689859A85F5
:101C0000AB85BC8580319742A105B10540F090912C
:101C1000D90181E08927882311F00E94F009000092
:101C20008091D4018823E1F31092D40129813A8173
:101C30004B815C818D859E85AF85B889820F931F0E
:101C4000A41FB51F89839A83AB83BC832D813E81FA
:101C50004F8158858D859E85AF85B889820F931FEA
:101C6000A41FB51F8D839E83AF83B88729853A85CE
:101C70004B855C858D859E85AF85B889820F931FC6
:101C8000A41FB51F89879A87AB87BC8789CFEE0FC2
:101C9000FF1F0024001C0BBE0790F691E02D099455
:041CA000F894FFCFE6
:101CA40001000000000000020000000027080000FE
:101CB40000000F27000001000200030004000500DB
:101CC40006000700080009000A000B000C000D00C4
:101CD4000E000F0010001100120013001400150074
:101CE40016001700180019001A001B001C001D0024
:101CF4001E001F00200021002200230024002500D4
:101D040026002700280029002A002B002C002D0083
:101D14002E002F0030003100320033003400350033
:101D240036003700380039003A003B003C003D00E3
:101D34003E003F00232A23404040234040402340AC
:101D4400234023404023234023404023404040403D
:101D54002323404023402323234040234040234067
:101D6400234023234023234023404040404040401D
:041D740023402321C4
:00000001FF
