:100000000C945E000C947D000C947D000C947D009B
:100010000C947D000C947D000C947D000C947D006C
:100020000C947D000C947D000C947D000C947D005C
:100030000C947D000C9497070C947D000C947D002B
:100040000C947D000C947D000C947D000C947D003C
:100050000C947D000C947D000C947D000C947D002C
:100060000C947D000C947D000C947D000C947D001C
:100070000C947D000C947D000C947D000C947D000C
:100080000C947D000C947D000C947D00420247028C
:100090004C02510256025B0260026502040A0B0A1E
:1000A0005D0A640A6B0A720A790A800A770B770B79
:1000B000BE0AD70AF00A330B770B770B11241FBE49
:1000C000CFEFD0E4DEBFCDBF11E0A0E0B1E0E2EFC2
:1000D000FDE100E00BBF02C007900D92A83EB10702
:1000E000D9F722E0A8EEB1E001C01D92A930B20715
:1000F000E1F70E94840B0C94F70E0C940000CF9350
:10010000DF9300D01F92CDB7DEB78B83198288E0D2
:10011000898348C08B81282F30E08981882F90E027
:10012000AC014150510981E090E002C0880F991F55
:100130004A95E2F7822393232981222F30E0215030
:10014000310902C0959587952A95E2F78A8385E261
:1001500090E025E230E0F90120812D7FFC01208331
:100160008A81882351F085E290E025E230E0F901B0
:1001700020812160FC01208309C085E290E025E216
:1001800030E0F90120812E7FFC01208385E290E0A0
:1001900025E230E0F90120812260FC012083898181
:1001A000815089838981882309F0B4CF00000F90A2
:1001B0000F900F90DF91CF910895CF93DF9300D0F0
:1001C00000D0CDB7DEB78A836B834C8319828A81D6
:1001D0008230B0F585E290E025E230E0F90120813F
:1001E0002B7FFC0120838A81898309C080E00E94E3
:1001F0007F0080E00E947F0089818F5F89838981F1
:100200008823A1F38B810E947F008C810E947F0054
:10021000198209C080E00E947F0080E00E947F0078
:1002200089818F5F898399818A81981798F385E204
:1002300090E025E230E0F90120812460FC01208378
:1002400000000F900F900F900F90DF91CF910895C5
:10025000CF93DF9300D0CDB7DEB789836A838A81DD
:10026000882319F08A81813029F44A816CE08981E0
:100270000E94DD0000000F900F90DF91CF91089554
:10028000CF93DF9300D0CDB7DEB789836A838A81AD
:10029000803128F44A816AE089810E94DD000000F3
:1002A0000F900F90DF91CF910895CF93DF9300D0FF
:1002B000CDB7DEB789836A838A81882319F08A8162
:1002C000813029F44A816FE089810E94DD000000BD
:1002D0000F900F90DF91CF910895CF93DF9300D0CF
:1002E000CDB7DEB789836A838A81883028F44A8152
:1002F0006BE089810E94DD0000000F900F90DF917C
:10030000CF910895CF93DF9300D0CDB7DEB7898327
:100310006A834A8169E089810E94DD0000000F90B4
:100320000F90DF91CF910895CF93DF9300D0CDB799
:10033000DEB789836A834A8161E089810E94DD009A
:1003400000000F900F90DF91CF910895CF93DF932E
:1003500000D0CDB7DEB789836A834A8162E08981A4
:100360000E94DD0000000F900F90DF91CF91089563
:10037000CF93DF9300D0CDB7DEB789836A834A81FC
:1003800063E089810E94DD0000000F900F90DF91F3
:10039000CF910895CF93DF9300D0CDB7DEB7898397
:1003A0006A834A8164E089810E94DD0000000F9029
:1003B0000F90DF91CF910895CF93DF9300D0CDB709
:1003C000DEB789836A834A8165E089810E94DD0006
:1003D00000000F900F90DF91CF910895CF93DF939E
:1003E00000D0CDB7DEB789836A834A8166E0898110
:1003F0000E94DD0000000F900F90DF91CF910895D3
:10040000CF93DF9300D0CDB7DEB789836A834A816B
:1004100067E089810E94DD0000000F900F90DF915E
:10042000CF910895CF93DF9300D0CDB7DEB7898306
:100430006A834A8168E089810E94DD0000000F9094
:100440000F90DF91CF910895CF93DF9300D01F924B
:10045000CDB7DEB789836A834B838A81882F90E08A
:10046000092E000CAA0BBB0B40E050E027E030E067
:10047000841B950B2817390768F18A5B9F4FFC0195
:100480000C94050C6B8189810E94940123C06B81BF
:1004900089810E94A6011EC06B8189810E94B801DA
:1004A00019C06B8189810E94CA0114C06B81898146
:1004B0000E94DC010FC06B8189810E94EE010AC09D
:1004C0006B8189810E94000205C06B8189810E9435
:1004D0001202000000000F900F900F90DF91CF915B
:1004E0000895CF93DF93CDB7DEB784E290E024E2A6
:1004F00030E0F90120812160FC01208384E290E05A
:1005000024E230E0F90120812260FC01208384E2B2
:1005100090E024E230E0F90120812460FC01208396
:1005200085E290E025E230E0F90120812E7FFC0198
:10053000208385E290E025E230E0F90120812D7FE3
:10054000FC01208385E290E025E230E0F901208182
:100550002B7FFC0120830000DF91CF910895CF9382
:10056000DF9300D0CDB7DEB79A83898389819A81E2
:10057000892B11F400C006C089819A810197F1F797
:100580009A83898300000F900F90DF91CF91089597
:10059000CF93DF93CDB7DEB78BE290E02BE230E074
:1005A000F90120812064FC01208300C08BE290E0EF
:1005B0002BE230E0F90120812F7BFC012083000039
:1005C000DF91CF910895CF93DF9300D01F92CDB7E5
:1005D000DEB78A836B838B81882351F08BE290E0B6
:1005E0002BE230E0F90120812061FC01208309C069
:1005F0008BE290E02BE230E0F90120812F7EFC01BC
:1006000020838BE290E02BE230E0F90120812F7D06
:10061000FC0120838AE290E02AE230E0F9012081A7
:100620002F60FC0120838BE290E0FC018081807FC1
:1006300089838BE290E02A8122952F70322F2981C5
:10064000232BFC0120830E94C8028BE290E02A81C8
:10065000322F3F702981232BFC0120830E94C80286
:100660008BE290E029812F60FC01208300000F9035
:100670000F900F90DF91CF910895CF93DF9300D02B
:10068000CDB7DEB78A838A81882351F08BE290E070
:100690002BE230E0F90120812061FC01208309C0B8
:1006A0008BE290E02BE230E0F90120812F7EFC010B
:1006B00020838BE290E02BE230E0F9012081206280
:1006C000FC0120838AE290E02AE230E0F9012081F7
:1006D000207FFC0120838BE290E02BE230E0F901E7
:1006E00020812064FC01208300C089E290E0FC01AD
:1006F00080818295807F89838BE290E02BE230E0DD
:10070000F90120812F7BFC01208300C08BE290E067
:100710002BE230E0F90120812064FC01208300C03D
:1007200089E290E0FC018081882F90E08F7099270A
:10073000982F8981892B89838BE290E02BE230E02E
:10074000F90120812F7BFC01208389810F900F907C
:10075000DF91CF9108951F93CF93DF93CDB7DEB78D
:1007600080E00E943D03182F812F8823CCF388E07E
:1007700090E00E94AF0280E00E943D03DF91CF91A4
:100780001F9108951F93CF93DF931F92CDB7DEB7CC
:1007900089838981803410F410E401C010E080E87E
:1007A000810F0E94D90300000F90DF91CF911F911C
:1007B0000895CF93DF931F92CDB7DEB789830E9450
:1007C000AB0360E089810E94E30200000F90DF919B
:1007D000CF910895CF93DF931F92CDB7DEB7898372
:1007E0000E94AB0361E089810E94E30200000F9048
:1007F000DF91CF910895CF93DF9300D0CDB7DEB7CF
:1008000089836A838A81882329F4898180580E9498
:10081000D90304C0898180540E94D90300000F903D
:100820000F90DF91CF910895CF93DF93CDB7DEB7CF
:100830000E94AB03882F90E0DF91CF910895CF9372
:10084000DF93CDB7DEB781E00E94D9030000DF91CE
:10085000CF910895CF93DF93CDB7DEB782E00E94AA
:10086000D9030000DF91CF910895CF93DF9300D09B
:10087000CDB7DEB78A830E94AB0389838A818A3031
:1008800021F489810E94C20304C08A8161E00E9430
:10089000E30200000F900F90DF91CF9108951F9316
:1008A000CF93DF9300D0CDB7DEB79A83898303C09F
:1008B000812F0E94350489819A819C012F5F3F4FCF
:1008C0003A832983FC011081112391F700000F90D6
:1008D0000F90DF91CF911F9108951F93CF93DF93D6
:1008E00000D000D01F92CDB7DEB79D838C8303C0AC
:1008F000812F0E9435048C819D819C012F5F3F4F89
:100900003D832C839A83898389819A81FC01849118
:100910008B838B81182F112359F700000F900F90B4
:100920000F900F900F90DF91CF911F910895CF936B
:10093000DF931F92CDB7DEB789838AE290E02AE287
:1009400030E0F90120812F67FC01208380E09AEFDD
:100950000E94AF028BE290E02BE230E0F9012081AF
:100960002260FC0120838BE290E02BE230E0F90171
:1009700020812160FC0120830E94C80280E09EE467
:100980000E94AF020E94C80280E091E00E94AF0284
:100990000E94C80280E091E00E94AF028BE290E0EA
:1009A0002BE230E0F90120812E7FFC0120830E94A0
:1009B000C80280E091E00E94AF0288E20E94D90361
:1009C00088E00E94D9030E941F0486E00E94D90398
:1009D00089810E94D90300000F90DF91CF91089583
:1009E000CF93DF9300D0CDB7DEB78A831982198207
:1009F0001AC08A81282F30E08981882F90E0220F49
:100A0000331F220F331F220F331F820F931F835177
:100A10009E4FFC01108240E069818A810E9424027D
:100A200089818F5F89838981883018F300000F9056
:100A30000F90DF91CF910895CF93DF9300D000D036
:100A4000CDB7DEB78A837C836B8319828A8182303B
:100A500088F519822CC08A81282F30E08981882F5F
:100A600090E04981442F50E06B817C81460F571FF5
:100A7000FA014081220F331F220F331F220F331F31
:100A8000820F931F83519E4FFC0140838981882FE1
:100A900090E02B813C81820F931FFC018081482FC5
:100AA00069818A810E94240289818F5F898389817B
:100AB000883088F200000F900F900F900F90DF9118
:100AC000CF910895CF93DF9300D01F92CDB7DEB7BB
:100AD00089836A834B8389818230D8F48A81883004
:100AE000C0F48981282F30E08A81882F90E0220F7E
:100AF000331F220F331F220F331F820F931F835187
:100B00009E4F2B81FC0120834B816A8189810E9449
:100B1000240200000F900F900F90DF91CF91089565
:100B2000CF93DF9300D000D01F92CDB7DEB78B8379
:100B30006C834D838C81803408F042C08C81877037
:100B40008A838B81282F30E08A81882F90E0220FC2
:100B5000331F220F331F220F331F820F931F835126
:100B60009E4FFC01808189838D81882391F08C8147
:100B7000869586958695282F30E081E090E002C02A
:100B8000880F991F2A95E2F7982F8981892B8983ED
:100B900012C08C81869586958695282F30E081E05D
:100BA00090E002C0880F991F2A95E2F7982F909540
:100BB00089818923898349816A818B810E946205A9
:100BC00000000F900F900F900F900F90DF91CF913A
:100BD0000895CF93DF9300D0CDB7DEB789836A83C2
:100BE00041E06A8189810E94900500000F900F907A
:100BF000DF91CF910895CF93DF9300D0CDB7DEB7CB
:100C000089836A8340E06A8189810E94900500009F
:100C10000F900F90DF91CF910895CF93DF9300D085
:100C2000CDB7DEB789836A836A8189810E944001DA
:100C300000000F900F90DF91CF910895CF93DF9335
:100C400000D0CDB7DEB70E947102198219821DC093
:100C50001A821A82000061E089810E94280160E006
:100C600089810E94550160E089810E9482016FE0C4
:100C700089810E94400167E089810E946D0189811C
:100C80000E94F00489818F5F89838981823000F31B
:100C900000000F900F90DF91CF910895CF93DF93D5
:100CA000CDB7DEB781E00E9475060000DF91CF91DD
:100CB0000895CF93DF93CDB7DEB784E690E00E942E
:100CC000190788E30E94750686E00E9475068FE08A
:100CD0000E94750681E00E9475068AE090E00E94FD
:100CE00019070000DF91CF910895CF93DF931F92F2
:100CF000CDB7DEB789838BE290E02BE230E0F901DB
:100D000020812F7BFC01208388E290E02981FC0177
:100D100020838BE290E02BE230E0F9012081206813
:100D2000FC01208300008BE290E02BE230E0F9012F
:100D300020812F77FC01208382E090E00E94190738
:100D400000000F90DF91CF910895CF93DF931F9212
:100D5000CDB7DEB789838BE290E02BE230E0F9017A
:100D600020812064FC01208388E290E02981FC013D
:100D700020838BE290E02BE230E0F90120812068B3
:100D8000FC01208300008BE290E02BE230E0F901CF
:100D900020812F77FC01208381E090E00E941907D9
:100DA00000000F90DF91CF910895CF93DF9300D093
:100DB00000D0CDB7DEB78A837C836B830E944E065A
:100DC0008A81898311C0898191E0980F99830E945B
:100DD00002078B819C819C012F5F3F4F3C832B83BB
:100DE000FC0180810E94A5068B819C81FC01808191
:100DF000882349F700000F900F900F900F90DF911C
:100E0000CF910895CF93DF931F92CDB7DEB789833B
:100E10008981813128F4898181580E94750604C036
:100E2000898181550E94750600000F90DF91CF9156
:100E30000895CF93DF9300D000D000D0CDB7DEB7B8
:100E40009E838D831A82198213C01C821B8206C066
:100E500000008B819C8101969C838B838B819C817C
:100E600087309340ACF389819A8101969A83898374
:100E700029813A818D819E812817390734F300003A
:100E800026960FB6F894DEBF0FBECDBFDF91CF918F
:100E90000895CF93DF93CDB7DEB781E890E02BE0E4
:100EA000FC01208388E890E02DE730E0FC013183ED
:100EB00020838FE690E022E0FC01208384E890E02C
:100EC000FC01118210828091000190910101A0919A
:100ED0000201B09103018093E9019093EA01A0938C
:100EE000EB01B093EC018FE590E02FE530E0F901E4
:100EF00020812068FC0120830000DF91CF910895BC
:100F0000CF93DF93CDB7DEB781E890E0FC0110828C
:100F10000000DF91CF910895CF93DF93CDB7DEB777
:100F200081E08093E8010000DF91CF9108951F9246
:100F30000F9200905F000F92112400905B000F92BF
:100F40002F933F934F935F936F937F938F939F93D1
:100F5000AF93BF93EF93FF93CF93DF93CDB7DEB7FC
:100F60008091E9019091EA01A091EB01B091EC012F
:100F70000197A109B1098093E9019093EA01A09337
:100F8000EB01B093EC018091E9019091EA01A0910D
:100F9000EB01B091EC01892B8A2B8B2B91F40E94F1
:100FA0008C078091000190910101A0910201B09104
:100FB00003018093E9019093EA01A093EB01B093C0
:100FC000EC010000DF91CF91FF91EF91BF91AF91C4
:100FD0009F918F917F916F915F914F913F912F9151
:100FE0000F9000925B000F9000925F000F901F9097
:100FF0001895CF93DF9300D000D0CDB7DEB76983CB
:101000007A838B839C8389819A81AB81BC81809315
:10101000000190930101A0930201B093030180911C
:10102000000190910101A0910201B0910301809310
:10103000E9019093EA01A093EB01B093EC01000069
:101040000F900F900F900F90DF91CF910895CF9355
:10105000DF9300D01F92CDB7DEB789837B836A838D
:1010600089818A3031F48A819B81BC018DE00E94A4
:10107000270880EC90E0FC018081882F90E080724E
:101080009927892BB1F386EC90E02981FC0120831C
:1010900080E090E00F900F900F90DF91CF91089536
:1010A000CF93DF9300D000D0CDB7DEB71A8219827C
:1010B000DDC01C821B82D0C089819A819C01220FD5
:1010C000331F220F331F220F331F8B819C81820F0E
:1010D000931F8E569E4FFC0180818332D1F489810B
:1010E0009A819C01220F331F220F331F220F331FBF
:1010F0008B819C81820F931F880F991F8E5E9E4F5C
:10110000FC018081918141E0682F80E00E94900580
:101110009EC089819A819C01220F331F220F331FA9
:10112000220F331F8B819C81820F931F8E569E4FFF
:10113000FC0180818A3291F589819A819C01220F7C
:10114000331F220F331F220F331F8B819C81820F8D
:10115000931F880F991F8E5E9E4FFC0180819181A5
:10116000909308028093070289819A819C01220F43
:10117000331F220F331F220F331F8B819C81820F5D
:10118000931F880F991F8E5E9E4FFC018081918175
:1011900041E0682F80E00E94900559C089819A81C2
:1011A0009C01220F331F220F331F220F331F8B810D
:1011B0009C81820F931F8E569E4FFC01808180344C
:1011C000D1F489819A819C01220F331F220F331F92
:1011D000220F331F8B819C81820F931F880F991FD1
:1011E0008E5E9E4FFC018081918140E0682F80E0FF
:1011F0000E9490052CC089819A819C01220F331F87
:10120000220F331F220F331F8B819C81820F931F6C
:101210008E569E4FFC0180818132C9F489819A816A
:101220009C01220F331F220F331F220F331F8B818C
:101230009C81820F931F880F991F8E5E9E4FFC0129
:101240008081918141E0682F80E00E9490058B8130
:101250009C8101969C838B838B819C8108970CF4E5
:101260002BCF89819A8101969A83898389819A817A
:1012700008970CF41ECF00000F900F900F900F9066
:10128000DF91CF910895CF93DF93CDB7DEB78CE791
:1012900090E02CE730E0F90120812064FC012083FC
:1012A0008AE790E02AE730E0F90120812768FC0115
:1012B00020830000DF91CF910895CF93DF931F9299
:1012C000CDB7DEB789838981877089838CE790E009
:1012D0002CE730E0F9012081322F387F2981232B40
:1012E000FC0120838AE790E02AE730E0F9012081C1
:1012F0002064FC01208300008AE790E0FC018081EB
:10130000882F90E080749927892BB1F788E790E0C7
:10131000FC01808191810F90DF91CF910895CF934F
:10132000DF93CDB7DEB78091010290910202813048
:10133000910569F08130910518F0029779F015C098
:1013400081E090E090930202809301020EC082E05F
:1013500090E0909302028093010207C081E090E048
:10136000909302028093010200008091010290910B
:10137000020281309105C9F081309105C0F00297D9
:1013800009F016C0809105029091060240E0682F96
:1013900080E00E949005809107029091080241E050
:1013A000682F80E00E94900503C0000001C000008B
:1013B0000000DF91CF910895CF93DF93CDB7DEB7D3
:1013C00080E00E945D099093FE018093FD0181E021
:1013D0000E945D0990930402809303028091FF01B3
:1013E00090910002CC01A0E0B0E040E050E027E0A6
:1013F00030E0841B950B2817390708F4A8C0825BDE
:101400009F4FFC010C94050C81E090E0909300024A
:101410008093FF019DC08091030290910402893E58
:10142000934038F082E090E0909300028093FF01B7
:101430008FC08091030290910402449738F483E0B6
:1014400090E0909300028093FF0182C08091FD01A3
:101450009091FE01893E934038F084E090E09093B3
:1014600000028093FF0174C08091FD019091FE0104
:10147000449738F485E090E0909300028093FF0158
:1014800067C08091FD019091FE018E31924071F410
:1014900080910302909104028B39910539F486E022
:1014A00090E0909300028093FF0152C081E090E0B1
:1014B000909300028093FF014BC087E090E09093EF
:1014C00000028093FF0144C087E090E09093000207
:1014D0008093FF013DC087E090E0909300028093ED
:1014E000FF0136C087E090E0909300028093FF01F7
:1014F0002FC081E090E0909300028093FF0128C00C
:101500008091030290910402893E934098F4809167
:10151000030290910402449768F08091FD0190913C
:10152000FE01893E934030F48091FD019091FE01CF
:10153000449738F487E090E0909300028093FF0195
:1015400006C081E090E0909300028093FF010000CC
:101550008091FF0190910002CC01A0E0B0E040E05A
:1015600050E027E030E0841B950B2817390708F47A
:10157000BCC08A5A9F4FFC010C94050C8091070255
:1015800090910802089708F4B4C0809107029091E6
:1015900008029093060280930502809107029091C1
:1015A000080208979093080280930702A2C08091D6
:1015B000070290910802C89708F09DC08091070229
:1015C0009091080290930602809305028091070291
:1015D00090910802089690930802809307028BC0AE
:1015E0008091070290910802892B59F5809107029A
:1015F00090910802089729F58091070290910802BE
:101600004097F9F480910702909108024897C9F435
:101610008091070290910802809799F480910702C7
:1016200090910802889769F48091070290910802CE
:10163000C09739F48091070290910802C89709F485
:101640005CC08091070290910802909306028093FB
:101650000502809107029091080201979093080279
:10166000809307024AC08091070290910802079771
:1016700051F580910702909108020F9721F5809112
:101680000702909108024797F1F480910702909128
:1016900008024F97C1F48091070290910802879742
:1016A00091F480910702909108028F9761F48091E4
:1016B000070290910802C79731F480910702909138
:1016C0000802CF97E1F08091070290910802909371
:1016D000060280930502809107029091080201960C
:1016E00090930802809307020AC0000009C000001E
:1016F00007C0000005C0000003C0000001C00000DA
:101700000000DF91CF910895CF93DF93CDB7DEB77F
:10171000A0970FB6F894DEBF0FBECDBF81E290E078
:10172000FC01108282E290E02FEFFC01208384E232
:1017300090E0FC01108285E290E02FEFFC01208315
:1017400087E290E02FEFFC01208388E290E0FC012B
:1017500010828AE290E02FEFFC0120838BE290E080
:10176000FC0110820E9459060E9443090E941E0635
:1017700066E970E080E090E00E94F9070E94490766
:101780000E94500880E00E945D099093FE018093C2
:10179000FD0181E00E945D099093040280930302A1
:1017A00020910302309104028091FD019091FE018D
:1017B000432F4F932F93292F2F938F9382ED91E0F7
:1017C000892F8F9382ED91E08F93CE0101969F93A5
:1017D0008F930E940E0C8DB79EB708960FB6F894A3
:1017E000DEBF0FBECDBFCE010196BC0181E00E94DD
:1017F000D5060E94DC090E948F0900008091E80153
:101800008823E1F31092E801BDCFEE0FFF1F002403
:10181000001C0BBE0790F691E02D09940F931F93C7
:10182000CF93DF93CDB7DEB72E970FB6F894DEBF18
:101830000FBECDBF0D891E8986E08C831A83098374
:101840008FEF9FE79E838D83AE01475E5F4F6F8969
:10185000788DCE0101960E943D0CEF81F885E00F56
:10186000F11F10822E960FB6F894DEBF0FBECDBFCB
:10187000DF91CF911F910F9108952F923F924F9238
:101880005F926F927F928F929F92AF92BF92CF9210
:10189000DF92EF92FF920F931F93CF93DF93CDB719
:1018A000DEB72B970FB6F894DEBF0FBECDBF6C012D
:1018B0007B018A01FC0117821682838181FFCCC1E2
:1018C000CE0101963C01F6019381F70193FD8591CC
:1018D00093FF81917F01882309F4BAC1853239F4DD
:1018E00093FD859193FF81917F01853229F4B601A3
:1018F00090E00E945D0EE7CF912C212C312CFFE16E
:10190000F315D8F08B3279F038F4803279F08332E5
:10191000A1F4232D20611DC08D3261F0803369F464
:10192000232D216016C0832D8260382EE32DE460C4
:101930003E2E2AC0F32DF8601DC037FC2DC020EDCF
:10194000280F2A3040F08E32B9F436FC81C1232DA5
:101950002064322E19C036FE06C08AE0989E200D03
:101960001124922E11C0EAE02E9E200D1124222E69
:10197000F32DF0623F2E08C08C3621F4832D806851
:10198000382E02C0883641F4F70193FD859193FF0C
:1019900081917F018111B3CF982F9F7D9554933012
:1019A00028F40C5F1F4F9FE399830DC0833631F0FD
:1019B000833771F0833509F059C021C0F801808167
:1019C00089830E5F1F4F88248394912C530113C089
:1019D0002801F2E04F0E511CF801A080B18036FEC4
:1019E00003C0692D70E002C06FEF7FEFC5010E9458
:1019F000520E4C018201F32DFF773F2E16C02801B5
:101A000022E0420E511CF801A080B18036FE03C0D6
:101A1000692D70E002C06FEF7FEFC5010E94470E95
:101A20004C01F32DF0683F2E820133FC1BC0822D48
:101A300090E088169906B0F4B60180E290E00E942A
:101A40005D0E2A94F4CFF50137FC859137FE819124
:101A50005F01B60190E00E945D0E21102A9421E002
:101A6000821A91088114910471F7E8C0843611F04C
:101A7000893641F5F80137FE07C0608171818281A6
:101A800093810C5F1F4F08C060817181072E000C8D
:101A9000880B990B0E5F1F4FF32DFF763F2E97FF9C
:101AA00009C090958095709561957F4F8F4F9F4F9E
:101AB000F0683F2E2AE030E0A3010E94990E882EA4
:101AC000861845C0853731F4232D2F7EB22E2AE0AB
:101AD00030E025C0932D997FB92E8F36C1F018F4D0
:101AE000883579F0B5C0803719F0883721F0B0C05B
:101AF000E92FE061BE2EB4FE0DC0FB2DF460BF2EB9
:101B000009C034FE0AC0292F2660B22E06C028E084
:101B100030E005C020E130E002C020E132E0F80111
:101B2000B7FE07C060817181828193810C5F1F4F76
:101B300006C06081718180E090E00E5F1F4FA301BD
:101B40000E94990E882E8618FB2DFF773F2E36FEB9
:101B50000DC0232D2E7FA22E891458F434FE0BC005
:101B600032FC09C0832D8E7EA82E05C0B82CA32C74
:101B700003C0B82C01C0B92CA4FE0FC0FE01E80DB3
:101B8000F11D8081803321F49A2D997EA92E09C000
:101B9000A2FE06C0B394B39404C08A2D867809F0DF
:101BA000B394A3FC11C0A0FE06C0B21488F4280CA4
:101BB000922C9B180EC0B21460F4B60180E290E043
:101BC0000E945D0EB394F7CFB21418F42B1802C024
:101BD000982C212CA4FE10C0B60180E390E00E9456
:101BE0005D0EA2FE17C0A1FC03C088E790E002C012
:101BF00088E590E0B6010CC08A2D867859F0A1FEE8
:101C000002C08BE201C080E2A7FC8DE2B60190E049
:101C10000E945D0E891438F4B60180E390E00E94C2
:101C20005D0E9A94F7CF8A94F301E80DF11D80813F
:101C3000B60190E00E945D0E8110F5CF222009F4DC
:101C400042CEB60180E290E00E945D0E2A94F6CF6B
:101C5000F6018681978102C08FEF9FEF2B960FB61A
:101C6000F894DEBF0FBECDBFDF91CF911F910F91D2
:101C7000FF90EF90DF90CF90BF90AF909F908F90AC
:101C80007F906F905F904F903F902F900895FC0150
:101C90000590615070400110D8F7809590958E0F97
:101CA0009F1F0895FC016150704001900110D8F70A
:101CB000809590958E0F9F1F08950F931F93CF933C
:101CC000DF93FB01238121FD03C08FEF9FEF2CC029
:101CD00022FF16C046815781248135814217530760
:101CE00044F4A081B1819D012F5F3F4F3183208358
:101CF0008C93268137812F5F3F4F3783268314C013
:101D00008B01EC01FB010084F185E02D0995892B05
:101D1000E1F6D80116968D919C911797019617962A
:101D20009C938E931697CE01DF91CF911F910F91C7
:101D30000895FA01AA27283051F1203181F1E89461
:101D40006F936E7F6E5F7F4F8F4F9F4FAF4FB1E0AE
:101D50003ED0B4E03CD0670F781F891F9A1FA11DA9
:101D6000680F791F8A1F911DA11D6A0F711D811DAA
:101D7000911DA11D20D009F468943F912AE0269F6F
:101D800011243019305D3193DEF6CF010895462FCE
:101D90004770405D4193B3E00FD0C9F7F6CF462FAF
:101DA0004F70405D4A3318F0495D31FD4052419318
:101DB00002D0A9F7EACFB4E0A695979587957795D5
:101DC0006795BA95C9F700976105710508959B015C
:101DD000AC010A2E06945795479537952795BA95E5
:101DE000C9F7620F731F841F951FA01D0895F894F3
:021DF000FFCF23
:101DF20001000000000000020000000027080000AF
:101E020000000000010002000300040005000600BB
:101E12000700080009000A000B000C000D000E006C
:101E22000F0010001100120013001400150016001C
:101E32001700180019001A001B001C001D001E00CC
:101E42001F0020002100220023002400250026007C
:101E52002700280029002A002B002C002D002E002C
:101E62002F003000310032003300340035003600DC
:101E72003700380039003A003B003C003D003E008C
:101E82003F00232A23404040234040402340234038
:101E9200234040232340234040234040404023230B
:101EA20040402340232323404023404023402340FB
:101EB20023234023234023404040404040402340CE
:101EC2002321583D2564202020202020202020206E
:081ED2002020593D25640000A9
:00000001FF
