:100000000C9454000C9473000C9473000C947300C3
:100010000C9473000C9473000C9473000C94730094
:100020000C9473000C9473000C9473000C94730084
:100030000C9473000C94FF030C9473000C947300E5
:100040000C9473000C9473000C9473000C94730064
:100050000C9473000C9473000C9473000C94730054
:100060000C9473000C9473000C9473000C94730044
:100070000C9473000C9473000C9473000C94730034
:100080000C9473000C9473000C9473002C053305CE
:1000900085059A05AE05C305D7051806F405F905CB
:1000A000FF0505060B06110611241FBECFEFD0E495
:1000B000DEBFCDBF11E0A0E0B1E0E8E1F3E100E098
:1000C0000BBF02C007900D92A832B107D9F721E00B
:1000D000A8E2B1E001C01D92A333B207E1F70E948C
:1000E0001D060C948A090C940000CF93DF9300D076
:1000F000CDB7DEB79A83898389819A81892B11F4E0
:1001000000C006C089819A810197F1F79A8389839B
:1001100000000F900F90DF91CF910895CF93DF9360
:10012000CDB7DEB78BE290E02BE230E0F901208121
:100130002064FC01208300C08BE290E02BE230E0E1
:10014000F90120812F7BFC0120830000DF91CF91FA
:100150000895CF93DF9300D01F92CDB7DEB78A8387
:100160006B838B81882351F08BE290E02BE230E0AF
:10017000F90120812061FC01208309C08BE290E01D
:100180002BE230E0F90120812F7EFC0120838BE2FD
:1001900090E02BE230E0F90120812F7DFC012083EB
:1001A0008AE290E02AE230E0F90120812F60FC0130
:1001B00020838BE290E0FC018081807F89838BE249
:1001C00090E02A8122952F70322F2981232BFC0168
:1001D00020830E948E008BE290E02A81322F3F70B4
:1001E0002981232BFC0120830E948E008BE290E06A
:1001F00029812F60FC01208300000F900F900F9049
:10020000DF91CF910895CF93DF9300D0CDB7DEB7C4
:100210008A838A81882351F08BE290E02BE230E0E0
:10022000F90120812061FC01208309C08BE290E06C
:100230002BE230E0F90120812F7EFC0120838BE24C
:1002400090E02BE230E0F90120812062FC01208364
:100250008AE290E02AE230E0F9012081207FFC016F
:1002600020838BE290E02BE230E0F90120812064D2
:10027000FC01208300C089E290E0FC01808182952E
:10028000807F89838BE290E02BE230E0F9012081CE
:100290002F7BFC01208300C08BE290E02BE230E05A
:1002A000F90120812064FC01208300C089E290E0F4
:1002B000FC018081882F90E08F709927982F898189
:1002C000892B89838BE290E02BE230E0F9012081D9
:1002D0002F7BFC01208389810F900F90DF91CF91BC
:1002E00008951F93CF93DF93CDB7DEB780E00E94D0
:1002F0000301182F812F8823CCF388E090E00E941F
:10030000750080E00E940301DF91CF911F91089555
:100310001F93CF93DF931F92CDB7DEB78983898177
:10032000803410F410E401C010E080E8810F0E94D6
:100330009F0100000F90DF91CF911F910895CF93FF
:10034000DF931F92CDB7DEB789830E94710160E011
:1003500089810E94A90000000F90DF91CF9108953C
:10036000CF93DF931F92CDB7DEB789830E947101CF
:1003700061E089810E94A90000000F90DF91CF9178
:100380000895CF93DF9300D0CDB7DEB789836A831A
:100390008A81882329F4898180580E949F0104C0A2
:1003A000898180540E949F0100000F900F90DF917F
:1003B000CF910895CF93DF93CDB7DEB70E9471013F
:1003C000882F90E0DF91CF910895CF93DF93CDB741
:1003D000DEB781E00E949F010000DF91CF91089578
:1003E000CF93DF93CDB7DEB782E00E949F0100007C
:1003F000DF91CF910895CF93DF9300D0CDB7DEB7D3
:100400008A830E94710189838A818A3021F48981DB
:100410000E94880104C08A8161E00E94A900000056
:100420000F900F90DF91CF9108951F93CF93DF939B
:1004300000D0CDB7DEB79A83898303C0812F0E9495
:10044000FB0189819A819C012F5F3F4F3A83298369
:10045000FC011081112391F700000F900F90DF91A4
:10046000CF911F9108951F93CF93DF9300D000D0B9
:100470001F92CDB7DEB79D838C8303C0812F0E946E
:10048000FB018C819D819C012F5F3F4F3D832C831D
:100490009A83898389819A81FC0184918B838B81E2
:1004A000182F112359F700000F900F900F900F9005
:1004B0000F90DF91CF911F910895CF93DF931F92FB
:1004C000CDB7DEB789838AE290E02AE230E0F90115
:1004D00020812F67FC01208380E09AEF0E94750045
:1004E0008BE290E02BE230E0F90120812260FC01F8
:1004F00020838BE290E02BE230E0F9012081216043
:10050000FC0120830E948E0080E09EE40E94750022
:100510000E948E0080E091E00E9475000E948E0093
:1005200080E091E00E9475008BE290E02BE230E0E9
:10053000F90120812E7FFC0120830E948E0080E043
:1005400091E00E94750088E20E949F0188E00E946D
:100550009F010E94E50186E00E949F0189810E941F
:100560009F0100000F90DF91CF910895CF93DF930B
:10057000CDB7DEB781E00E94DD020000DF91CF91B0
:100580000895CF93DF93CDB7DEB784E690E00E9465
:10059000810388E30E94DD0286E00E94DD028FE095
:1005A0000E94DD0281E00E94DD028AE090E00E946C
:1005B00081030000DF91CF910895CF93DF931F92C5
:1005C000CDB7DEB789838BE290E02BE230E0F90112
:1005D00020812F7BFC01208388E290E02981FC01AF
:1005E00020838BE290E02BE230E0F901208120684B
:1005F000FC01208300008BE290E02BE230E0F90167
:1006000020812F77FC01208382E090E00E9481030B
:1006100000000F90DF91CF910895CF93DF931F9249
:10062000CDB7DEB789838BE290E02BE230E0F901B1
:1006300020812064FC01208388E290E02981FC0174
:1006400020838BE290E02BE230E0F90120812068EA
:10065000FC01208300008BE290E02BE230E0F90106
:1006600020812F77FC01208381E090E00E948103AC
:1006700000000F90DF91CF910895CF93DF9300D0CA
:1006800000D0CDB7DEB78A837C836B830E94B6022D
:100690008A81898311C0898191E0980F99830E9492
:1006A0006A038B819C819C012F5F3F4F3C832B838E
:1006B000FC0180810E940D038B819C81FC01808163
:1006C000882349F700000F900F900F900F90DF9153
:1006D000CF910895CF93DF931F92CDB7DEB7898373
:1006E0008981813128F4898181580E94DD0204C00A
:1006F000898181550E94DD0200000F90DF91CF912A
:100700000895CF93DF9300D000D000D0CDB7DEB7EF
:100710009E838D831A82198213C01C821B8206C09D
:1007200000008B819C8101969C838B838B819C81B3
:1007300087309340ACF389819A8101969A838983AB
:1007400029813A818D819E812817390734F3000071
:1007500026960FB6F894DEBF0FBECDBFDF91CF91C6
:100760000895CF93DF93CDB7DEB781E890E02BE01B
:10077000FC01208388E890E02DE730E0FC01318324
:1007800020838FE690E022E0FC01208384E890E063
:10079000FC01118210828091000190910101A091D1
:1007A0000201B09103018093290190932A01A09343
:1007B0002B01B0932C018FE590E02FE530E0F9019B
:1007C00020812068FC0120830000DF91CF910895F3
:1007D000CF93DF93CDB7DEB781E890E0FC011082C4
:1007E0000000DF91CF910895CF93DF93CDB7DEB7AF
:1007F00081E0809328010000DF91CF9108951F923E
:100800000F9200905F000F92112400905B000F92F6
:100810002F933F934F935F936F937F938F939F9308
:10082000AF93BF93EF93FF93CF93DF93CDB7DEB733
:100830008091290190912A01A0912B01B0912C0166
:100840000197A109B1098093290190932A01A093EE
:100850002B01B0932C018091290190912A01A09144
:100860002B01B0912C01892B8A2B8B2B91F40E94A8
:10087000F4038091000190910101A0910201B091D7
:1008800003018093290190932A01A0932B01B09337
:100890002C010000DF91CF91FF91EF91BF91AF91BB
:1008A0009F918F917F916F915F914F913F912F9188
:1008B0000F9000925B000F9000925F000F901F90CE
:1008C0001895CF93DF9300D000D0CDB7DEB7698302
:1008D0007A838B839C8389819A81AB81BC8180934D
:1008E000000190930101A0930201B0930301809154
:1008F000000190910101A0910201B0910301809348
:10090000290190932A01A0932B01B0932C010000A0
:100910000F900F900F900F90DF91CF910895CF938C
:10092000DF9300D01F92CDB7DEB789837B836A83C4
:1009300089818A3031F48A819B81BC018DE00E94DB
:100940008F0480EC90E0FC018081882F90E0807221
:100950009927892BB1F386EC90E02981FC01208353
:1009600080E090E00F900F900F90DF91CF9108956D
:10097000CF93DF93CDB7DEB78CE790E02CE730E084
:10098000F90120812064FC0120838AE790E02AE7B6
:1009900030E0F90120812768FC0120830000DF910D
:1009A000CF910895CF93DF931F92CDB7DEB78983A0
:1009B0008981877089838CE790E02CE730E0F9012A
:1009C0002081322F387F2981232BFC0120838AE765
:1009D00090E02AE730E0F90120812064FC012083C7
:1009E00000008AE790E0FC018081882F90E080740D
:1009F0009927892BB1F788E790E0FC0180819181EC
:100A00000F90DF91CF910895CF93DF93CDB7DEB7ED
:100A100080E00E94D20490932E0180932D0181E00A
:100A20000E94D204909332018093310180912F0172
:100A300090913001CC01A0E0B0E040E050E026E031
:100A400030E0841B950B2817390708F4B7C08A5B80
:100A50009F4FFC010C94980681E090E09093300148
:100A600080932F01ACC08091310190913201893E79
:100A7000934038F082E090E09093300180932F0112
:100A80009EC08091310190913201449738F483E007
:100A900090E09093300180932F0191C080912D01BF
:100AA00090912E01893E934038F084E090E090933D
:100AB000300180932F0183C080912D0190912E01F0
:100AC000449738F485E090E09093300180932F01B3
:100AD00076C080912D0190912E018E31924071F45B
:100AE00080913101909132018B39910539F486E082
:100AF00090E09093300180932F0161C081E090E0FD
:100B00009093300180932F015AC0809131019091D0
:100B10003201893E934038F082E090E090933001BA
:100B200080932F014CC081E090E09093300180933E
:100B30002F0145C08091310190913201449738F4E2
:100B400083E090E09093300180932F0138C081E0E2
:100B500090E09093300180932F0131C080912D015E
:100B600090912E01893E934038F084E090E090937C
:100B7000300180932F0123C081E090E090933001F9
:100B800080932F011CC080912D0190912E014497DC
:100B900038F485E090E09093300180932F010FC0EE
:100BA00081E090E09093300180932F0108C081E0B4
:100BB00090E09093300180932F0101C0000080915C
:100BC0002F0190913001CC01A0E0B0E040E050E076
:100BD00026E030E0841B950B2817390738F1835B3A
:100BE0009F4FFC010C94980685E290E0FC01108276
:100BF00020C085E290E022E0FC0120831AC085E25B
:100C000090E024E0FC01208314C085E290E021E024
:100C1000FC0120830EC085E290E028E0FC012083E7
:100C200008C085E290E0FC01108203C0000001C012
:100C300000000000DF91CF910895CF93DF93CDB7EF
:100C4000DEB7A0970FB6F894DEBF0FBECDBF81E22E
:100C500090E0FC01108282E290E02FEFFC01208303
:100C600084E290E02FEFFC01208385E290E0FC011C
:100C7000108287E290E02FEFFC01208388E290E071
:100C8000FC0110828AE290E02FEFFC0120838BE2CE
:100C900090E0FC0110820E94C1020E94B8046CE244
:100CA00071E080E090E00E9461040E94B10380E066
:100CB0000E94D20490932E0180932D0181E00E9426
:100CC000D20490933201809331012091310130910F
:100CD000320180912D0190912E01432F4F932F933C
:100CE000292F2F938F9382E191E0892F8F9382E1B7
:100CF00091E08F93CE0101969F938F930E94A1065E
:100D00008DB79EB708960FB6F894DEBF0FBECDBF65
:100D1000CE010196BC0181E00E943D030E940405C2
:100D20000000809128018823E1F310922801BFCFB1
:100D3000EE0FFF1F0024001C0BBE0790F691E02D64
:100D400009940F931F93CF93DF93CDB7DEB72E9700
:100D50000FB6F894DEBF0FBECDBF0D891E8986E0A9
:100D60008C831A8309838FEF9FE79E838D83AE0167
:100D7000475E5F4F6F89788DCE0101960E94D00645
:100D8000EF81F885E00FF11F10822E960FB6F894D0
:100D9000DEBF0FBECDBFDF91CF911F910F910895A0
:100DA0002F923F924F925F926F927F928F929F927B
:100DB000AF92BF92CF92DF92EF92FF920F931F9369
:100DC000CF93DF93CDB7DEB72B970FB6F894DEBF86
:100DD0000FBECDBF6C017B018A01FC011782168218
:100DE000838181FFCCC1CE0101963C01F601938144
:100DF000F70193FD859193FF81917F01882309F489
:100E0000BAC1853239F493FD859193FF81917F01B9
:100E1000853229F4B60190E00E94F008E7CF912CCA
:100E2000212C312CFFE1F315D8F08B3279F038F416
:100E3000803279F08332A1F4232D20611DC08D32E0
:100E400061F0803369F4232D216016C0832D826008
:100E5000382EE32DE4603E2E2AC0F32DF8601DC02D
:100E600037FC2DC020ED280F2A3040F08E32B9F427
:100E700036FC81C1232D2064322E19C036FE06C0F7
:100E80008AE0989E200D1124922E11C0EAE02E9E39
:100E9000200D1124222EF32DF0623F2E08C08C3637
:100EA00021F4832D8068382E02C0883641F4F70182
:100EB00093FD859193FF81917F018111B3CF982F8D
:100EC0009F7D9554933028F40C5F1F4F9FE39983C7
:100ED0000DC0833631F0833771F0833509F059C086
:100EE00021C0F801808189830E5F1F4F882483947D
:100EF000912C530113C02801F2E04F0E511CF80150
:100F0000A080B18036FE03C0692D70E002C06FEF93
:100F10007FEFC5010E94E5084C018201F32DFF77A8
:100F20003F2E16C0280122E0420E511CF801A0807D
:100F3000B18036FE03C0692D70E002C06FEF7FEF15
:100F4000C5010E94DA084C01F32DF0683F2E8201A2
:100F500033FC1BC0822D90E088169906B0F4B601D0
:100F600080E290E00E94F0082A94F4CFF50137FC6B
:100F7000859137FE81915F01B60190E00E94F008F3
:100F800021102A9421E0821A91088114910471F7AA
:100F9000E8C0843611F0893641F5F80137FE07C004
:100FA00060817181828193810C5F1F4F08C06081D5
:100FB0007181072E000C880B990B0E5F1F4FF32DCC
:100FC000FF763F2E97FF09C09095809570956195AB
:100FD0007F4F8F4F9F4FF0683F2E2AE030E0A301F4
:100FE0000E942C09882E861845C0853731F4232DA0
:100FF0002F7EB22E2AE030E025C0932D997FB92EA6
:101000008F36C1F018F4883579F0B5C0803719F003
:10101000883721F0B0C0E92FE061BE2EB4FE0DC0CC
:10102000FB2DF460BF2E09C034FE0AC0292F2660B4
:10103000B22E06C028E030E005C020E130E002C05A
:1010400020E132E0F801B7FE07C060817181828142
:1010500093810C5F1F4F06C06081718180E090E03A
:101060000E5F1F4FA3010E942C09882E8618FB2DAE
:10107000FF773F2E36FE0DC0232D2E7FA22E891422
:1010800058F434FE0BC032FC09C0832D8E7EA82E8E
:1010900005C0B82CA32C03C0B82C01C0B92CA4FEE9
:1010A0000FC0FE01E80DF11D8081803321F49A2DDF
:1010B000997EA92E09C0A2FE06C0B394B39404C0C1
:1010C0008A2D867809F0B394A3FC11C0A0FE06C057
:1010D000B21488F4280C922C9B180EC0B21460F441
:1010E000B60180E290E00E94F008B394F7CFB2140A
:1010F00018F42B1802C0982C212CA4FE10C0B601A5
:1011000080E390E00E94F008A2FE17C0A1FC03C09B
:1011100088E790E002C088E590E0B6010CC08A2D17
:10112000867859F0A1FE02C08BE201C080E2A7FCE4
:101130008DE2B60190E00E94F008891438F4B601FF
:1011400080E390E00E94F0089A94F7CF8A94F3012C
:10115000E80DF11D8081B60190E00E94F008811039
:10116000F5CF222009F442CEB60180E290E00E9441
:10117000F0082A94F6CFF6018681978102C08FEF9E
:101180009FEF2B960FB6F894DEBF0FBECDBFDF9159
:10119000CF911F910F91FF90EF90DF90CF90BF9074
:1011A000AF909F908F907F906F905F904F903F9007
:1011B0002F900895FC010590615070400110D8F700
:1011C000809590958E0F9F1F0895FC01615070408F
:1011D00001900110D8F7809590958E0F9F1F08956C
:1011E0000F931F93CF93DF93FB01238121FD03C056
:1011F0008FEF9FEF2CC022FF16C0468157812481BC
:1012000035814217530744F4A081B1819D012F5FBE
:101210003F4F318320838C93268137812F5F3F4F4F
:101220003783268314C08B01EC01FB010084F18518
:10123000E02D0995892BE1F6D80116968D919C91A8
:101240001797019617969C938E931697CE01DF9170
:10125000CF911F910F910895FA01AA27283051F1DB
:10126000203181F1E8946F936E7F6E5F7F4F8F4FD7
:101270009F4FAF4FB1E03ED0B4E03CD0670F781F36
:10128000891F9A1FA11D680F791F8A1F911DA11D1B
:101290006A0F711D811D911DA11D20D009F4689454
:1012A0003F912AE0269F11243019305D3193DEF6FC
:1012B000CF010895462F4770405D4193B3E00FD0B2
:1012C000C9F7F6CF462F4F70405D4A3318F0495D9D
:1012D00031FD4052419302D0A9F7EACFB4E0A69580
:1012E0009795879577956795BA95C9F700976105A2
:1012F000710508959B01AC010A2E069457954795F8
:1013000037952795BA95C9F7620F731F841F951FEC
:08131000A01D0895F894FFCF21
:101318000100000000000002000000008F0400002F
:101328000000583D25642020202020202020202057
:081338002020593D256400004E
:00000001FF
