:100000000C9446000C9465000C9465000C946500FB
:100010000C9465000C9465000C9465000C946500CC
:100020000C9465000C9465000C9465000C946500BC
:100030000C9465000C94B5000C9465000C9465005C
:100040000C9465000C9465000C9465000C9465009C
:100050000C9465000C9465000C9465000C9465008C
:100060000C9465000C9465000C9465000C9465007C
:100070000C9465000C9465000C9465000C9465006C
:100080000C9465000C9465000C94650011241FBE4F
:10009000CFEFD0E4DEBFCDBF11E0A0E0B1E0E2E3FE
:1000A000FAE000E00BBF02C007900D92A239B10741
:1000B000D9F721E0A2E9B1E001C01D92A33AB2074D
:1000C000E1F70E941C030C9417050C940000CF93D9
:1000D000DF93CDB7DEB781E890E02BE0FC01208311
:1000E00088E890E02DE730E0FC01318320838FE643
:1000F00090E022E0FC01208384E890E0FC01118282
:1001000010828091000190910101A0910201B091B3
:1001100003018093930190939401A0939501B09370
:1001200096018FE590E02FE530E0F901208120680D
:10013000FC0120830000DF91CF910895CF93DF93DE
:10014000CDB7DEB781E890E0FC0110820000DF91BE
:10015000CF910895CF93DF93CDB7DEB781E0809341
:1001600092010000DF91CF9108951F920F920090AD
:100170005F000F92112400905B000F922F933F932A
:100180004F935F936F937F938F939F93AF93BF939F
:10019000EF93FF93CF93DF93CDB7DEB780919301B9
:1001A00090919401A0919501B09196010197A109B8
:1001B000B1098093930190939401A0939501B0931A
:1001C00096018091930190919401A0919501B09135
:1001D0009601892B8A2B8B2B91F40E94AA00809187
:1001E000000190910101A0910201B091030180935F
:1001F000930190939401A0939501B0939601000010
:10020000DF91CF91FF91EF91BF91AF919F918F912E
:100210007F916F915F914F913F912F910F9000923D
:100220005B000F9000925F000F901F901895CF9386
:10023000DF9300D000D0CDB7DEB769837A838B839C
:100240009C8389819A81AB81BC81809300019093CA
:100250000101A0930201B0930301809100019091EC
:100260000101A0910201B091030180939301909349
:100270009401A0939501B093960100000F900F9008
:100280000F900F90DF91CF910895CF93DF9300D01F
:100290001F92CDB7DEB789837B836A8389818A30D9
:1002A00031F48A819B81BC018DE00E94450180EC84
:1002B00090E0FC018081882F90E080729927892B43
:1002C000B1F386EC90E02981FC01208380E090E08E
:1002D0000F900F900F90DF91CF9108950F931F9380
:1002E000CF93DF9300D000D0CDB7DEB769837A8398
:1002F0008B839C8380919D0190919E01A0919F0191
:10030000B091A0019C01AD0169817A818B819C81B2
:100310000E944603882309F477C020E030E0A90159
:1003200069817A818B819C810E944603882351F4E4
:1003300081E990E021E930E0F90120812870FC0199
:10034000208309C081E990E021E930E0F9012081B2
:100350002360FC01208328E539E344E75FE36981FA
:100360007A818B819C810E944603882344F488E92A
:1003700090E02FEF3FEFFC013183208334C020E079
:1003800034E244EF56E469817A818B819C810E943A
:10039000A504181634F488E990E0FC01118210825B
:1003A00022C008E910E020E030E040E053E4698139
:1003B0007A818B819C810E94AA04DC01CB019C0183
:1003C000AD0160E074E284EF9AE40E944B03DC012B
:1003D000CB01BC01CD010E94BD03DC01CB01019723
:1003E000F8019183808384E990E0FC0111821082FE
:1003F00089819A81AB81BC8180939D0190939E01FC
:10040000A0939F01B093A00100000F900F900F9058
:100410000F90DF91CF911F910F910895CF93DF93AC
:10042000CDB7DEB780E990E020E4FC01208381E9CC
:1004300090E02BE0FC01208360E070E0CB010E94A3
:100440006E010000DF91CF910895CF93DF93CDB778
:10045000DEB780E990E0FC01108281E990E0FC01C8
:1004600010820000DF91CF910895CF93DF93CDB735
:10047000DEB780E290E0FC01808180958F708093F0
:1004800097018091A1019091A2018130910589F09D
:100490008130910538F08230910509F44FC00397FF
:1004A000D1F069C081E090E09093A2018093A10116
:1004B00063C080919701813039F483E090E090939C
:1004C000A2018093A10158C081E090E09093A20125
:1004D0008093A10151C080919701813039F483E06C
:1004E00090E09093A2018093A10146C08091970172
:1004F000813059F480919C01813039F483E090E09F
:100500009093A2018093A10118C080919701882344
:1005100069F480919C01813049F481E090E09093EE
:10052000A2018093A10110929C0107C082E090E09B
:100530009093A2018093A1011FC01EC080919A01D7
:100540008C3960F482E090E09093A2018093A10145
:1005500080919A018F5F80939A010DC080919701DD
:10056000813019F481E080939C0181E090E09093C8
:10057000A2018093A10100008091A1019091A201AC
:100580008130910559F08130910508F44EC08230D8
:10059000910571F0039709F44AC04AC060E070E029
:1005A000CB010E946E011092990110929A0140C0F5
:1005B00080919B01282F30E080919901882F90E055
:1005C000880F991F865A9E4FFC01808191812817C0
:1005D0003907F0F480919B018F5F80939B0180919C
:1005E0009901882F90E0880F991F8E5D9E4FFC0126
:1005F00080819181CC01A0E0B0E0BC01CD010E94DE
:10060000F303DC01CB01BC01CD010E946E0110C0DF
:1006100010929B01809199018F5F8093990160E016
:1006200070E0CB010E946E0103C0000001C0000019
:100630000000DF91CF910895CF93DF93CDB7DEB760
:1006400081E290E0FC01108282E290E02FEFFC0159
:10065000208384E290E02FEFFC01208385E290E08C
:10066000FC01108264E670E080E090E00E941701D7
:100670000E9467000E940E020E94350200008091D5
:1006800092018823E1F310929201F6CF0E94300488
:1006900008F481E008950E945F030C946B040E94AB
:1006A000640458F00E945D0440F029F45F3F29F093
:1006B0000C94540451110C949F040C945A040E94FD
:1006C0007C0468F39923B1F3552391F3951B550BE3
:1006D000BB27AA2762177307840738F09F5F5F4F15
:1006E000220F331F441FAA1FA9F335D00E2E3AF054
:1006F000E0E832D091505040E695001CCAF72BD06C
:10070000FE2F29D0660F771F881FBB1F26173707BC
:100710004807AB07B0E809F0BB0B802DBF01FF27EE
:1007200093585F4F3AF09E3F510578F00C94540473
:100730000C949F045F3FE4F3983ED4F3869577953D
:100740006795B795F7959F5FC9F7880F911D9695A7
:10075000879597F90895E1E0660F771F881FBB1F03
:10076000621773078407BA0720F0621B730B840BB0
:10077000BA0BEE1F88F7E09508950E94C4036894B1
:10078000B1110C949F0408950E94840488F09F572F
:1007900098F0B92F9927B751B0F0E1F0660F771FA5
:1007A000881F991F1AF0BA95C9F714C0B13091F09B
:1007B0000E949E04B1E008950C949E04672F782F48
:1007C0008827B85F39F0B93FCCF386957795679560
:1007D000B395D9F73EF490958095709561957F4FCC
:1007E0008F4F9F4F0895E89409C097FB3EF4909572
:1007F0008095709561957F4F8F4F9F4F9923A9F0FA
:10080000F92F96E9BB279395F69587957795679588
:10081000B795F111F8CFFAF4BB0F11F460FF1BC0CC
:100820006F5F7F4F8F4F9F4F16C0882311F096E95F
:1008300011C0772321F09EE8872F762F05C066230D
:1008400071F096E8862F70E060E02AF09A95660FC6
:10085000771F881FDAF7880F9695879597F908957F
:10086000990F0008550FAA0BE0E8FEEF16161706C1
:10087000E807F907C0F012161306E407F50798F029
:10088000621B730B840B950B39F40A2661F0232B42
:10089000242B252B21F408950A2609F4A140A695BE
:1008A0008FEF811D811D089597F99F6780E870E0A3
:1008B00060E008959FEF80EC089500240A941616D6
:1008C000170618060906089500240A94121613063E
:1008D000140605060895092E0394000C11F48823CC
:1008E00052F0BB0F40F4BF2B11F460FF04C06F5FE8
:1008F0007F4F8F4F9F4F089557FD9058440F551FBE
:1009000059F05F3F71F04795880F97FB991F61F091
:100910009F3F79F087950895121613061406551F08
:10092000F2CF4695F1DF08C0161617061806991F74
:10093000F1CF86957105610508940895E894BB2769
:1009400066277727CB0197F908950E94300408F4B1
:100950008FEF08950E94BD040C946B040E945D0407
:1009600038F00E94640420F0952311F00C94540494
:100970000C945A0411240C949F040E947C0470F37C
:10098000959FC1F3950F50E0551F629FF001729F34
:10099000BB27F00DB11D639FAA27F00DB11DAA1F43
:1009A000649F6627B00DA11D661F829F2227B00D90
:1009B000A11D621F739FB00DA11D621F839FA00D1B
:1009C000611D221F749F3327A00D611D231F849F6B
:1009D000600D211D822F762F6A2F11249F575040C2
:1009E0009AF0F1F088234AF0EE0FFF1FBB1F661F3D
:1009F000771F881F91505040A9F79E3F510580F006
:100A00000C9454040C949F045F3FE4F3983ED4F399
:100A1000869577956795B795F795E7959F5FC1F7A9
:100A2000FE2B880F911D9695879597F90895F89458
:020A3000FFCFF6
:100A3200010000000000000200000000450100006B
:100A420000000501250149015D018801B801ED01A0
:100A52000B02050125014901050149010501490171
:100A6200250149015D015D01490125015D01490140
:100A72005D01880149018801490188015D01880100
:100A8200B801B80188015D01B8010A00050005003E
:100A920005000300030005000A000500030003002F
:100AA2000300030005000A00050003000300030021
:100AB200030003000A000500030003000300030013
:020AC20003002F
:00000001FF
