:100000000C9446000C9465000C9465000C946500FB
:100010000C9465000C9465000C9465000C946500CC
:100020000C9465000C9465000C9465000C946500BC
:100030000C9465000C94B0010C9465000C94650060
:100040000C9465000C9465000C9465000C9465009C
:100050000C9465000C9465000C9465000C9465008C
:100060000C9465000C9465000C9465000C9465007C
:100070000C9465000C9465000C9465000C9465006C
:100080000C9465000C9465000C94650011241FBE4F
:10009000CFEFD0E4DEBFCDBF11E0A0E0B1E0E4E7F8
:1000A000FDE000E00BBF02C007900D92AA35B1073A
:1000B000D9F721E0AAE5B1E001C01D92AC37B20743
:1000C000E1F70E9454050C94B8060C940000CF93FD
:1000D000DF93CDB7DEB781E00E948E000000DF9194
:1000E000CF910895CF93DF93CDB7DEB784E690E04C
:1000F0000E94320188E30E948E0086E00E948E00FA
:100100008FE00E948E0081E00E948E008AE090E0E5
:100110000E9432010000DF91CF910895CF93DF93C9
:100120001F92CDB7DEB789838BE290E02BE230E0FF
:10013000F90120812F7BFC01208385E290E0298159
:10014000FC0120838BE290E02BE230E0F90120817A
:100150002068FC01208300008BE290E02BE230E07D
:10016000F90120812F77FC01208382E090E00E943A
:10017000320100000F90DF91CF910895CF93DF936C
:100180001F92CDB7DEB789838BE290E02BE230E09F
:10019000F90120812064FC01208385E290E029811F
:1001A000FC0120838BE290E02BE230E0F90120811A
:1001B0002068FC01208300008BE290E02BE230E01D
:1001C000F90120812F77FC01208381E090E00E94DB
:1001D000320100000F90DF91CF910895CF93DF930C
:1001E00000D000D0CDB7DEB78A837C836B830E94BA
:1001F00067008A81898311C0898191E0980F998372
:100200000E941B018B819C819C012F5F3F4F3C838F
:100210002B83FC0180810E94BE008B819C81FC01AC
:100220008081882349F700000F900F900F900F9066
:10023000DF91CF910895CF93DF931F92CDB7DEB7B3
:1002400089838981813128F4898181580E948E00B7
:1002500004C0898181550E948E0000000F90DF91BB
:10026000CF910895CF93DF9300D000D000D0CDB7C9
:10027000DEB79E838D831A82198213C01C821B8273
:1002800006C000008B819C8101969C838B838B81AF
:100290009C8187309340ACF389819A8101969A833F
:1002A000898329813A818D819E812817390734F30A
:1002B000000026960FB6F894DEBF0FBECDBFDF91CB
:1002C000CF910895CF93DF93CDB7DEB781E890E06B
:1002D0002BE0FC01208388E890E02DE730E0FC0172
:1002E000318320838FE690E022E0FC01208384E8C4
:1002F00090E0FC0111821082809100019091010137
:10030000A0910201B091030180935B0190935C0185
:10031000A0935D01B0935E018FE590E02FE530E0A2
:10032000F90120812068FC0120830000DF91CF913A
:100330000895CF93DF93CDB7DEB781E890E0FC015D
:1003400010820000DF91CF910895CF93DF93CDB756
:10035000DEB781E080935A010000DF91CF910895CC
:100360001F920F9200905F000F92112400905B008B
:100370000F922F933F934F935F936F937F938F933E
:100380009F93AF93BF93EF93FF93CF93DF93CDB73B
:10039000DEB780915B0190915C01A0915D01B0910D
:1003A0005E010197A109B10980935B0190935C0103
:1003B000A0935D01B0935E0180915B0190915C011F
:1003C000A0915D01B0915E01892B8A2B8B2B91F45A
:1003D0000E94A5018091000190910101A09102016C
:1003E000B091030180935B0190935C01A0935D0148
:1003F000B0935E010000DF91CF91FF91EF91BF912B
:10040000AF919F918F917F916F915F914F913F91AC
:100410002F910F9000925B000F9000925F000F9061
:100420001F901895CF93DF9300D000D0CDB7DEB7E3
:1004300069837A838B839C8389819A81AB81BC8118
:100440008093000190930101A0930201B0930301F6
:100450008091000190910101A0910201B0910301EE
:1004600080935B0190935C01A0935D01B0935E016A
:1004700000000F900F900F900F90DF91CF91089593
:10048000CF93DF9300D01F92CDB7DEB789836A8305
:100490004B838B81882371F08A81282F30E081E0A3
:1004A00090E002C0880F991F2A95E2F7982F898162
:1004B000892B0EC08A81282F30E081E090E002C0B5
:1004C000880F991F2A95E2F7982F909589818923A3
:1004D0000F900F900F90DF91CF910895CF93DF93FE
:1004E00000D0CDB7DEB789836A838A81282F30E0B8
:1004F00081E090E002C0880F991F2A95E2F7982FBB
:10050000898189230F900F90DF91CF9108950F93E8
:100510001F93CF93DF93CDB7DEB708E210E040E042
:1005200064E08FEF0E944002F8018083000086E2C1
:1005300090E0FC018081809560E00E946E0288233B
:1005400011F081E3D3C086E290E0FC0180818095C8
:1005500061E00E946E02882311F084E3C7C086E246
:1005600090E0FC018081809562E00E946E02882309
:1005700011F087E3BBC086E290E0FC0180818095AA
:1005800063E00E946E02882311F08AE2AFC008E2A5
:1005900010E040E065E08FEF0E944002F8018083A8
:1005A000000086E290E0FC018081809560E00E947E
:1005B0006E02882311F082E399C086E290E0FC018C
:1005C0008081809561E00E946E02882311F085E3AE
:1005D0008DC086E290E0FC018081809562E00E94FF
:1005E0006E02882311F088E381C086E290E0FC016E
:1005F0008081809563E00E946E02882311F080E381
:1006000075C008E210E040E066E08FEF0E94400213
:10061000F8018083000086E290E0FC0180818095F3
:1006200060E00E946E02882311F083E35FC086E2DF
:1006300090E0FC018081809561E00E946E02882339
:1006400011F086E353C086E290E0FC018081809542
:1006500062E00E946E02882311F089E347C086E2BF
:1006600090E0FC018081809563E00E946E02882307
:1006700011F083E23BC008E210E040E067E08FEF5A
:100680000E944002F8018083000086E290E0FC01B5
:100690008081809560E00E946E02882311F081E4E1
:1006A00025C086E290E0FC018081809561E00E9497
:1006B0006E02882311F082E419C086E290E0FC010A
:1006C0008081809562E00E946E02882311F083E4AD
:1006D0000DC086E290E0FC018081809563E00E947D
:1006E0006E02882311F084E401C080E0DF91CF9195
:1006F0001F910F910895CF93DF93CDB7DEB72C975D
:100700000FB6F894DEBF0FBECDBF6D837E838F839F
:10071000988729873A874B875C878D819E81AF8137
:10072000B88529853A854B855C85BC01CD010E9441
:100730009606DC01CB0189839A83AB83BC838981D4
:100740009A81AB81BC81892B8A2B8B2B29F48985DB
:100750009A85AB85BC8511C089859A85AB85BC859A
:100760008D839E83AF83B88789819A81AB81BC8159
:1007700089879A87AB87BC87D0CFBC01CD012C96E7
:100780000FB6F894DEBF0FBECDBFDF91CF910895B5
:10079000CF93DF9300D01F92CDB7DEB789837B83E1
:1007A0006A8389818A3031F48A819B81BC018DE022
:1007B0000E94C80380EC90E0FC018081882F90E0CB
:1007C00080729927892BB1F386EC90E02981FC0196
:1007D000208380E090E00F900F900F90DF91CF91F9
:1007E0000895CF93DF9300D01F92CDB7DEB79B83E0
:1007F0008A8380E290E0FC01808180958770898304
:100800008A819B818230910599F1833091052CF486
:10081000009761F0019779F046C08430910591F11D
:100820008430910554F1059791F13DC081E090E04D
:100830009B838A8339C08981813029F482E090E0EA
:100840009B838A8331C08981823029F483E090E0E0
:100850009B838A8329C08981843029F484E090E0D5
:100860009B838A8321C081E090E09B838A831CC0A4
:1008700085E090E09B838A8317C085E090E09B83AE
:100880008A8312C085E090E09B838A830DC08981B2
:10089000882329F481E090E09B838A8304C085E06B
:1008A00090E09B838A8300008A819B81823091053E
:1008B000D1F0833091052CF4009761F0019771F12C
:1008C00030C084309105B9F08430910584F00597EB
:1008D00039F127C0109261011092620110926301F8
:1008E000109264011EC081E0809312011AC081E160
:1008F0008093120116C080916401882349F490917D
:10090000630181E0992309F080E08093630109C0CD
:1009100081E0809361011092640103C0000001C076
:1009200000008A819B810F900F900F90DF91CF91F3
:100930000895CF93DF9300D000D0CDB7DEB79C836E
:100940008B838B819C818130910559F08230910598
:10095000E1F0892B09F026C081E090E09C838B8335
:1009600022C080911201882F90E08D5E9E4FFC0185
:1009700080818A3229F482E090E09C838B8313C0CB
:1009800081E090E09C838B830EC080916101813077
:1009900029F481E090E09C838B8304C082E090E0A6
:1009A0009C838B8300008B819C818130910541F079
:1009B0008230910509F443C0892B09F469C06BC0EA
:1009C00080916301882309F065C081E090E09A83FB
:1009D000898320C089810E941B0180916501282F95
:1009E00030E089819A81820F931F8F7190789923CB
:1009F00024F40197806E9F6F01968D5E9E4FFC01DF
:100A00008081882F90E00E94BE0089819A810196A2
:100A10009A83898389819A818197E4F28091120176
:100A20000E941B0180916501803218F010926501CF
:100A300031C0809165018F5F809365012BC081E09B
:100A40008093650116C0809165010E941B01809111
:100A50006501882F90E001978C5C9E4FFC0180819E
:100A6000882F90E00E94BE00809165018F5F809387
:100A7000650180916501863230F381E08093120137
:100A8000109265011092610181E08093640103C0BE
:100A9000000001C000008B819C810F900F900F908F
:100AA0000F90DF91CF9108950F931F93CF93DF9312
:100AB000CDB7DEB729970FB6F894DEBF0FBECDBF16
:100AC00084E290E02FEFFC01208385E290E0FC01BE
:100AD000108287E290E020EFFC01208388E290E022
:100AE0002FE0FC01208381E290E0FC01108282E291
:100AF00090E02FEFFC0120838AE290E02FEFFC01D1
:100B0000208385E290E0FC0110820E94720086E65C
:100B100091E09F838E8381E791E09987888782E0C7
:100B200090E09C838B831D828D81809366018AE097
:100B300090E0A0E0B0E08093670190936801A093FB
:100B40006901B0936A018091670190916801A09159
:100B50006901B0916A0180936B0190936C01A0933D
:100B60006D01B0936E0181EF93E0909370018093DB
:100B70006F018D818093710184E190E0A0E0B0E08D
:100B80008093720190937301A0937401B0937501E7
:100B90008091720190917301A0917401B0917501DF
:100BA0008093760190937701A0937801B0937901B7
:100BB00089E994E090937B0180937A016AE070E088
:100BC00080E090E00E9412020E9462011A82198263
:100BD0001A8219829BC089819A81880F991F9E0170
:100BE0002F5F3F4F820F931F0596FC0180819181FB
:100BF000FC01258136814781508589819A81880F42
:100C0000991FBE016F5F7F4F860F971F0596FC01EE
:100C100080819181FC0181819281A381B481281717
:100C200039074A075B0709F045C089819A81880F17
:100C3000991F9E012F5F3F4F820F931F0596FC0166
:100C40000081118189819A81880F991F9E012F5FF0
:100C50003F4F820F931F0596FC0180819181FC011B
:100C60002185328589819A81880F991FAE014F5F56
:100C70005F4F840F951F0596FC0180819181FC01D7
:100C80008081082E000C990BF9010995F8018083E9
:100C900089819A81880F991F9E012F5F3F4F820F94
:100CA000931F0596FC0180819181FC0115821682BB
:100CB0001782108689819A81880F991F9E012F5F64
:100CC0003F4F820F931F0596FC012081318189815E
:100CD0009A81880F991FAE014F5F5F4F840F951F58
:100CE0000596FC0180819181FC0185819681A78117
:100CF000B0850196A11DB11DF90185839683A78357
:100D0000B08789819A8101969A83898329813A8162
:100D10008B819C812817390708F45DCF00008091F2
:100D20005A018823E1F310925A0152CFA1E21A2E00
:100D3000AA1BBB1BFD010DC0AA1FBB1FEE1FFF1F7F
:100D4000A217B307E407F50720F0A21BB30BE40BCF
:100D5000F50B661F771F881F991F1A9469F7609516
:100D60007095809590959B01AC01BD01CF010895D0
:040D7000F894FFCF25
:100D7400010000000000000200000000C8030000A1
:100D84000000012020202020202020202A202020B4
:100D94002020202A2020202020202A202020202A31
:100DA40020202000556E6C75636B792C2070726561
:100DB4007373205265737461727420746F20706C45
:0A0DC400617920616761696E21000A
:00000001FF
