:100000000C9446000C9465000C9465000C946500FB
:100010000C9465000C9465000C9465000C946500CC
:100020000C9465000C9465000C9465000C946500BC
:100030000C9465000C94B0010C9465000C94650060
:100040000C9465000C9465000C9465000C9465009C
:100050000C9465000C9465000C9465000C9465008C
:100060000C9465000C9465000C9465000C9465007C
:100070000C9465000C9465000C9465000C9465006C
:100080000C9465000C9465000C94650011241FBE4F
:10009000CFEFD0E4DEBFCDBF11E0A0E0B1E0EAE6F3
:1000A000F7E000E00BBF02C007900D92A832B10745
:1000B000D9F721E0A8E2B1E001C01D92A333B20755
:1000C000E1F70E9477030C94B3030C940000CF93E4
:1000D000DF93CDB7DEB781E00E948E000000DF9194
:1000E000CF910895CF93DF93CDB7DEB784E690E04C
:1000F0000E94320188E30E948E0086E00E948E00FA
:100100008FE00E948E0081E00E948E008AE090E0E5
:100110000E9432010000DF91CF910895CF93DF93C9
:100120001F92CDB7DEB789838BE290E02BE230E0FF
:10013000F90120812F7BFC01208388E290E0298156
:10014000FC0120838BE290E02BE230E0F90120817A
:100150002068FC01208300008BE290E02BE230E07D
:10016000F90120812F77FC01208382E090E00E943A
:10017000320100000F90DF91CF910895CF93DF936C
:100180001F92CDB7DEB789838BE290E02BE230E09F
:10019000F90120812064FC01208388E290E029811C
:1001A000FC0120838BE290E02BE230E0F90120811A
:1001B0002068FC01208300008BE290E02BE230E01D
:1001C000F90120812F77FC01208381E090E00E94DB
:1001D000320100000F90DF91CF910895CF93DF930C
:1001E00000D000D0CDB7DEB78A837C836B830E94BA
:1001F00067008A81898311C0898191E0980F998372
:100200000E941B018B819C819C012F5F3F4F3C838F
:100210002B83FC0180810E94BE008B819C81FC01AC
:100220008081882349F700000F900F900F900F9066
:10023000DF91CF910895CF93DF931F92CDB7DEB7B3
:1002400089838981813128F4898181580E948E00B7
:1002500004C0898181550E948E0000000F90DF91BB
:10026000CF910895CF93DF9300D000D000D0CDB7C9
:10027000DEB79E838D831A82198213C01C821B8273
:1002800006C000008B819C8101969C838B838B81AF
:100290009C8187309340ACF389819A8101969A833F
:1002A000898329813A818D819E812817390734F30A
:1002B000000026960FB6F894DEBF0FBECDBFDF91CB
:1002C000CF910895CF93DF93CDB7DEB781E890E06B
:1002D0002BE0FC01208388E890E02DE730E0FC0172
:1002E000318320838FE690E022E0FC01208384E8C4
:1002F00090E0FC0111821082809100019091010137
:10030000A0910201B09103018093290190932A01E9
:10031000A0932B01B0932C018FE590E02FE530E006
:10032000F90120812068FC0120830000DF91CF913A
:100330000895CF93DF93CDB7DEB781E890E0FC015D
:1003400010820000DF91CF910895CF93DF93CDB756
:10035000DEB781E0809328010000DF91CF910895FE
:100360001F920F9200905F000F92112400905B008B
:100370000F922F933F934F935F936F937F938F933E
:100380009F93AF93BF93EF93FF93CF93DF93CDB73B
:10039000DEB78091290190912A01A0912B01B091A3
:1003A0002C010197A109B1098093290190932A0199
:1003B000A0932B01B0932C018091290190912A01E7
:1003C000A0912B01B0912C01892B8A2B8B2B91F4BE
:1003D0000E94A5018091000190910101A09102016C
:1003E000B09103018093290190932A01A0932B01DE
:1003F000B0932C010000DF91CF91FF91EF91BF915D
:10040000AF919F918F917F916F915F914F913F91AC
:100410002F910F9000925B000F9000925F000F9061
:100420001F901895CF93DF9300D000D0CDB7DEB7E3
:1004300069837A838B839C8389819A81AB81BC8118
:100440008093000190930101A0930201B0930301F6
:100450008091000190910101A0910201B0910301EE
:100460008093290190932A01A0932B01B0932C0132
:1004700000000F900F900F900F90DF91CF91089593
:10048000CF93DF9300D01F92CDB7DEB789837B83F4
:100490006A8389818A3031F48A819B81BC018DE035
:1004A0000E94400280EC90E0FC018081882F90E067
:1004B00080729927892BB1F386EC90E02981FC01A9
:1004C000208380E090E00F900F900F90DF91CF910C
:1004D0000895CF93DF931F92CDB7DEB780E290E00F
:1004E000FC01808180958370898380913101909196
:1004F000320182309105E1F08330910528F40097B4
:1005000049F0019771F05AC08330910511F10497B9
:10051000C1F154C081E090E09093320180933101A9
:1005200052C082E090E090933201809331014BC041
:100530008981813039F483E090E090933201809397
:10054000310141C082E090E090933201809331010B
:100550003AC08981813019F481E080932D01809126
:100560002D01813031F484E090E09093320180934A
:10057000310110922D0183E090E09093320180933D
:1005800031018981813019F481E080932D018981C5
:10059000882339F484E090E0909332018093310114
:1005A0000AC080912D01813031F482E090E0909377
:1005B00032018093310110922D0105C01092320159
:1005C000109231010000809131019091320182300E
:1005D0009105B1F08330910530F4009709F45AC0C9
:1005E000019741F05EC08330910599F1049709F4B9
:1005F00053C057C085E290E021E0FC01208351C048
:1006000080912E01813091F485E290E025E230E086
:10061000F90120812695FC01208385E290E0FC0110
:1006200080818130D9F510922E0138C085E290E0AA
:1006300025E230E0F9012081220FFC01208385E2D0
:1006400090E0FC018081843049F581E080932E01A7
:1006500025C085E290E0FC018081823089F48091A0
:1006600012018A3028F4809112018F5F8093120169
:10067000809112018930A1F481E08093300110C093
:1006800080911201882361F0809112018150809342
:10069000120106C0000005C0000003C0000001C038
:1006A000000081E00E941B0180913001813041F007
:1006B0000E94670080911201805D0E94BE0012C0FE
:1006C0000E94670063E171E081E00E94EE0085E234
:1006D00090E0FC018081823029F01092300185E0A9
:1006E0008093120100000F90DF91CF910895CF9376
:1006F000DF93CDB7DEB784E290E02FEFFC012083DB
:1007000085E290E0FC01108281E290E0FC01108221
:1007100082E290E02FEFFC01208387E290E02FEF50
:10072000FC01208388E290E0FC0110828AE290E0E4
:100730002FEFFC0120838BE290E0FC0110826CE241
:1007400071E080E090E00E9412020E9462010E942B
:1007500072000E9469020000809128018823E1F361
:0A07600010922801F6CFF894FFCFA5
:10076A00010000000000000200000000400200003A
:10077A00000005596F7520776F6E206C65747320C1
:08078A00474F4F4F4F4F4F0046
:00000001FF
