:100000000C9446000C9465000C9465000C946500FB
:100010000C9465000C9465000C9465000C946500CC
:100020000C9465000C9465000C9465000C946500BC
:100030000C9465000C94B5000C9465000C9465005C
:100040000C9465000C9465000C9465000C9465009C
:100050000C9465000C9465000C9465000C9465008C
:100060000C9465000C9465000C9465000C9465007C
:100070000C9465000C9465000C9465000C9465006C
:100080000C9465000C9465000C94650011241FBE4F
:10009000CFEFD0E4DEBFCDBF11E0A0E0B1E0E0E201
:1000A000F7E000E00BBF02C007900D92A831B10746
:1000B000D9F721E0A8E1B1E001C01D92AB32B2074F
:1000C000E1F70E9427030C948E030C940000CF9359
:1000D000DF93CDB7DEB781E890E02BE0FC01208311
:1000E00088E890E02DE730E0FC01318320838FE643
:1000F00090E022E0FC01208384E890E0FC01118282
:1001000010828091000190910101A0910201B091B3
:1001100003018093190190931A01A0931B01B093DE
:100120001C018FE590E02FE530E0F9012081206887
:10013000FC0120830000DF91CF910895CF93DF93DE
:10014000CDB7DEB781E890E0FC0110820000DF91BE
:10015000CF910895CF93DF93CDB7DEB781E0809341
:1001600018010000DF91CF9108951F920F92009027
:100170005F000F92112400905B000F922F933F932A
:100180004F935F936F937F938F939F93AF93BF939F
:10019000EF93FF93CF93DF93CDB7DEB78091190133
:1001A00090911A01A0911B01B0911C010197A10926
:1001B000B1098093190190931A01A0931B01B09388
:1001C0001C018091190190911A01A0911B01B0911D
:1001D0001C01892B8A2B8B2B91F40E94AA00809101
:1001E000000190910101A0910201B091030180935F
:1001F000190190931A01A0931B01B0931C010000F8
:10020000DF91CF91FF91EF91BF91AF919F918F912E
:100210007F916F915F914F913F912F910F9000923D
:100220005B000F9000925F000F901F901895CF9386
:10023000DF9300D000D0CDB7DEB769837A838B839C
:100240009C8389819A81AB81BC81809300019093CA
:100250000101A0930201B0930301809100019091EC
:100260000101A0910201B0910301809319019093C3
:100270001A01A0931B01B0931C0100000F900F9076
:100280000F900F90DF91CF910895CF93DF9300D01F
:100290001F92CDB7DEB789837B836A8389818A30D9
:1002A00031F48A819B81BC018DE00E94450180EC84
:1002B00090E0FC018081882F90E080729927892B43
:1002C000B1F386EC90E02981FC01208380E090E08E
:1002D0000F900F900F90DF91CF910895CF93DF9300
:1002E000CDB7DEB780E290E0FC0180818095877019
:1002F000809322018091290190912A0182309105F9
:10030000D9F08330910528F4009779F00197E1F155
:100310006CC08430910509F450C08430910508F414
:1003200045C0059709F450C060C082E090E090930A
:100330002A01809329015AC080912201843039F426
:1003400081E090E090932A01809329014FC0809131
:100350002201813039F483E090E090932A01809368
:10036000290144C080912201823039F484E090E078
:1003700090932A018093290139C082E090E0909304
:100380002A018093290132C080912201882339F407
:1003900082E090E090932A018093290127C081E0B8
:1003A00090E090932A018093290120C085E090E09D
:1003B00090932A018093290119C085E090E09093E1
:1003C0002A018093290112C080912201882339F4E7
:1003D00082E090E090932A018093290106C085E095
:1003E00090E090932A0180932901000080912901D7
:1003F00090912A018230910591F08330910530F47B
:10040000009709F442C0019769F046C08430910515
:1004100091F18430910528F10597C9F13DC0109202
:100420001F013AC080912001833020F481E0809345
:100430001F0111C080912101882F90E08E5E9E4F98
:10044000FC01908180912001981718F010921F01F3
:1004500002C010922001809120018F5F80932001C3
:100460001BC0809121018530A0F4809121018F5F14
:10047000809321010EC080912101882361F0809139
:10048000210181508093210106C0000005C00000B9
:1004900003C0000001C000000000DF91CF9108956B
:1004A000CF93DF93CDB7DEB78091230190912401E4
:1004B0008130910581F08130910530F082309105D5
:1004C00089F00397B1F01CC081E090E09093240183
:1004D0008093230115C082E090E0909324018093E3
:1004E00023010EC083E090E09093240180932301C8
:1004F00007C081E090E090932401809323010000E5
:1005000080912301909124018130910549F081303F
:10051000910590F08230910539F0039749F00DC0B4
:1005200081E080931D0109C082E080931D0105C018
:1005300084E080931D0101C000000000DF91CF9195
:100540000895CF93DF93CDB7DEB7809125019091C9
:10055000260181309105A1F08130910518F00297B4
:1005600041F015C081E090E0909326018093250131
:100570000EC081E090E0909326018093250107C092
:1005800082E090E090932601809325010000809105
:100590002501909126018130910549F08130910526
:1005A00050F0029709F008C010921E0105C081E0CA
:1005B00080931E0101C000000000DF91CF910895DB
:1005C000CF93DF93CDB7DEB78091270190912801BB
:1005D000009719F0019741F00EC081E090E09093F0
:1005E00028018093270107C081E090E090932801C3
:1005F00080932701000080912701909128010097A6
:1006000009F1019709F01FC085E290E020911F01D8
:10061000222F30E022953295307F3227207F3227FB
:10062000422F20911E01222F30E0220F331F220F74
:10063000331F220F331F242B30911D01232BFC016C
:10064000208301C000000000DF91CF910895CF9377
:10065000DF9300D000D000D0CDB7DEB781E290E0CC
:10066000FC01108282E290E02FEFFC01208384E203
:1006700090E02FEFFC01208385E290E0FC011082E6
:1006800061E070E080E090E00E9417010E94670046
:100690001A8219821C821B8281E090E09E838D83E6
:1006A000109224011092230110922601109225012C
:1006B000109228011092270110922A01109229010C
:1006C00089819A818C32914020F00E9450021A82D6
:1006D00019828B819C81883E934020F00E94A10268
:1006E0001C821B820E946E010E94E0020000809129
:1006F00018018823E1F31092180129813A818D8134
:100700009E81820F931F9A8389832B813C818D81E7
:100710009E81820F931F9C838B83D2CFF894FFCF4F
:100720000100000000000002000000004501000080
:0807300000000406080A0C0E8B
:00000001FF
